:100000000C949D0A0C94C50A0C94C50A0C94C50A5C
:100010000C94C50A0C94C50A0C94C50A0C94C50A24
:100020000C94C50A0C94C50A0C94C50A0C94EE23D2
:100030000C94C50A0C94C50A0C94C50A0C94C50A04
:100040000C94C4330C94C50A0C94C50A0C94C50ACC
:100050000C94C50A0C94C50A0C94C50A0C94C50AE4
:100060000C94C50A0C94C50A100053776F72647320
:10007000206F66207468652053656120576F6C7629
:100080006573200A1D20466C617368696E670A20DB
:10009000206D656E752E2E2E0A0A444F4E27542071
:1000A0005455524E204F4646210040280000000083
:1000B000C000408000000000A000E08000000000C0
:1000C000CCE646C000000000A8EA48A018000000E6
:1000D000AEAE46A03C000000000000007A00000028
:1000E000E0000000FC000000E0000000F80000005C
:1000F000ACCA0000B4000000A8AA00004EF0000046
:10010000AEAE00001CF20000000000000AF4000087
:1001100000000000012800000000000000B0000006
:10012000000000000060000000000000002000004F
:1001300003F000000020000003D0000000200000B9
:1001400003D00000005000000120000000900000DB
:1001500003C0000001B00000050000000FFFFC001C
:100160000500000008000400050000000901060069
:10017000050000000B01060002800000091B86003C
:10018000028000000911060002C000000BB1060F3A
:10019000FFFC000008000608000400000BA0061B7E
:1001A000808400000BA00618808400000A20061B33
:1001B000B18400000800061A2A8400000800061B0B
:1001C000A984000008000618000400000800061BAF
:1001D000B00400000800061B900400000800061A86
:1001E000180400000800061800040000400564A67A
:1001F000C4EA84EE4A608AA8AA4A8A44AA808AE8A5
:10020000CE4A8E44AE408AEAAA4A8A44AE2064A608
:10021000AA4EEA4E4AC0180564CCA08AAAA04ACCCD
:10022000402AAA40C4AA40402800000000C0004064
:100230008000000000A000E08000000000CCE64646
:10024000C000000000A8EA48A018000000AEAE46BA
:10025000A03C000000000000007A000000E0000068
:1002600000FC000000E0000000F8000000ACCA0044
:1002700000B4000000A8AA00004EF00000AEAE00DE
:10028000001CF20000000000000AF4000000000062
:1002900000012800000000000000B0000000000085
:1002A0000000600000000000000020000003F000DB
:1002B000000020000003D000000020000003D00058
:1002C0000000500000012000000090000003C0006A
:1002D0000001B00000050000000FFFFC0005000059
:1002E00000080004000500000009010600050000E8
:1002F000000B01060002800000091B86000280003E
:10030000000911060002C000000BB1060FFFFC003F
:100310000008000608000400000BB0061B808400E3
:10032000000B900618808400000A18061BB1840098
:10033000000800061A2A8400000800061BA9840091
:100340000008000618000400000800061BA00400B6
:10035000000800061BA00400000800061A20040084
:100360000008000618000400005830FFFFFFFFFFE0
:10037000FFFFFFFFFFF0FFFFFFFFFFFFFFFFFFFF9C
:10038000F0FFFFFFFFFFFFFFFFFFFFF0FFFFFFFF9B
:10039000FFFFFFFFF1FFF0FFFFFFFFFFFFFFFFC0C9
:1003A0001FF0FFFFFFFFFFFFFFFFC01FF0FFFFFF7A
:1003B000FFFFFFFFFE0003F0FFFFFFFFFFFFFFFF58
:1003C000FFFFF0FFF8FFFF0FFFFFFFFFFFF0FFE071
:1003D0000FFF07FFFFFFFFFFF0FFE00FF803FFFF36
:1003E000FFFFFFF0FF0001FFFFFFF0FFFFFFF0FF47
:1003F000FFFFFFFFFFF07FFFFFF0FFFFFFFFFFFFAB
:10040000803FFFFFF0FFFFFFFFFFFFFFFFFFFFF059
:10041000FFFFFFFFFFFFFFFFFFFFF0FFFFFFFFFFFB
:10042000FFFFFFFFFFF0FFFFFFFFFFFFFFFFFFFFEB
:10043000F0FFFFFFFFFFFFFFFFFFFFF0FFFFFFFFEA
:10044000FFFFFFFFFFFFF0FFFFFFFFFFFFFFFFFFCB
:10045000FFF0FFFFFFFFFFFFFFFFFFFFF0FFFFFFCA
:10046000FFFF81FE07FFFFF0FFFFFFFFFFF8781F90
:10047000FFFFF0FFFFFFFFFFFC207FFFFFF0FFFF0C
:10048000FFFFFFE001FFFFFFF0FFFFFFFFFF0003A3
:10049000FFFFFFF0FFFFFFFFFFF00007FFFFF0FF90
:1004A000FFFFFFFFF00073FFFFF0FFFFFFFFFFC73D
:1004B00003FDFFFFF0FFFFFFFFDF9C4FFFFFFFF09B
:1004C000FFFFFFFFE7F84FFFFFFFF0FFFFFFFF73A6
:1004D000F8CFFFFFFFF0FFFFFFFF1B13CFFFFFFF72
:1004E000F0FFFFFFFFE03FCFFFFFFFF0FFFFFFFF49
:1004F000E01FCFFFFFFFF0FFFFFFFFD8EF9FFFFFE1
:10050000FFF0FFFFFFFFBA7F1FFFFFFFF0FFFFFFBE
:10051000FFFBBF1FFFFFFFF0FFFFFFFFF3FE3FFFEB
:10052000FFFFF0FFFFFFFFF7FC7FFFFFFFF0FFFF84
:10053000FFFFE7F87FFFFFFFF0FFFFFFFFCFF8FFB0
:10054000FFFFFFF0FFFFFFFF9FF0FFFFFFFFF0FF48
:10055000FFFFFE3FE1FFFFFFFFF000000000000093
:10056000000000000000000000000000000000008B
:10057000FFFFFFFFFFFFFFFFFFFFF0580AFFFFFF36
:10058000FFFFFFFFFFFFFFF0FFFFFFFFFFFFFFFF8A
:10059000FFFFF0FFFFFFFFFFFFFFFFFFFFF0FFFF89
:1005A000FFFFFFFFFFFFFFFFF0FFFFFFFFFFFFFF6A
:1005B000FFFFFFF0FFFFFFFFFFFFFFFFFFFFF0FF69
:1005C000FFFFFFFFFFFFFFFFFFF0FE000000000046
:1005D00000000007F0FE000000000000000007F02F
:1005E000FC000000000000000003F0580A100000AA
:1005F000000000000000008060000000000000001B
:10060000000060600000000000000000006060006A
:10061000000000000000000060600000000000001A
:100620000000006060000000000000000000606F3B
:10063000FFFFFFFFFFFFFFFFFF60760000000000ED
:1006400000000006E06200000000000000000460FE
:100650001C00000000000000000380280CF1F807D7
:10066000EFC0890805A840B5E805AB40B5E805AB83
:1006700040B5E805AB408D08046B40B97805AB4048
:10068000B17805AB40A17805AB40A10805A840E1D1
:10069000F807EFC0E1F807EFC0280CF03007EFC013
:1006A000885005A840B49005AB40B55005AB40B5A7
:1006B000D005AB408DD0046B40B85005AB40B05076
:1006C00005AB40A1D805AB40A10805A840E1F8075B
:1006D000EFC0E1F807EFC0300CFBEFDF807EFC8A53
:1006E0002850805A84DB6857805AB4DB6857805A98
:1006F000B4514B57805A84514B50805ABC514B5780
:10070000805ABC514B57805AA0514B57805AA05227
:100710002B508042A073EFDF807EE073EFDF807E9E
:10072000E0200CFDF7EFDF85142B51BDB5EB5BBD71
:10073000B5EB5BBCA50B4A84A5E84ABCA52B4ABC1B
:10074000A5AB4AA0A5AB4AA1142B4AE1F7EFCEE135
:10075000F7EFCE080CFC84F4F4F484F4F4F484FC95
:10076000FC080CFC84F4F4F484BCBCBC84FCFC08E1
:100770000C182848A8E8E82828EC84FCFC03022090
:100780001C25011F1D49021F1C6C01191D0122217E
:100790001D242117243F221E246322342303022018
:1007A0001C25011F1D49021F1C6C01191D0122215E
:1007B0001D242117243F221E2463223423A0470036
:1007C0000000000000000000000000000000000029
:1007D0000000000000000000003C000000000000DD
:1007E0000003C00000000000003C000000FE00000C
:1007F0000000F000000FE0000000000000FE00001C
:1008000001FF00000003F800001FF00000000000DE
:1008100001FF000007FF00000007FC1C007FF00044
:100820000000000007FF00001FFF8000001FFC1EEB
:1008300001FFF800000000001FFF80003FFFC00024
:10084000007FFE0E03FFFC00000000003FFFC00021
:100850003FFFC00000FFFF0F03FFFC00000000008F
:100860003FFFC0003FFF800000FFFF0F03FFF800C5
:10087000000000003FFF80001FFF000000FFFE0F90
:1008800000FFF000000000001FFF00C07FFF80009D
:10089000007FFC0F00FFF800000000007FFF80E0F9
:1008A0003FFFC06003FFFE1F03FFFC0000000000CD
:1008B0003FFFC0E0FFFFC07003FFFF1F07FFFC000A
:1008C00000000000FFFFC1E0FFFF807001FFFF1F7D
:1008D00003FFF80000000007FFFF81E07FFF80F0CA
:1008E0001FFFFE1E0FFFF8000000000FFFFF83E355
:1008F000FFFFC0F03FFFFE7E03FFFC000000000F83
:10090000FFFFC7C7FFFFC1F03FFFFFFE07FFFC006F
:100910000000001FFFFFCFC7FFFFC3E03FFFFFFE48
:1009200007FFFC000000001FFFFFDF87FFFFC7E09D
:100930007F7FFFFE07FFFC000000001FBFFFFF07D7
:10094000FFFFCFC07E7FFFFC03FFFC000000001F05
:10095000BFFFFE03FFFFFF803C7FFFF803FFF800AF
:100960000000000F3FFFFC03FFFFFF00007FFEC001
:10097000037FF800000000003FFFFC01FFFFFE00C6
:1009800000FFFE00037FFC18000000007FFEF8005F
:100990003FFF7E0003FFFF80017FFFF800000000A3
:1009A0007C3CF0003E1E7C0007FFFFC0007FFFF88C
:1009B00000000000F87E00007C3F780007F81FE888
:1009C000007FFFF000000000F87E00007C3F000088
:1009D0001FC007F8007FCFC000000000E03C00000F
:1009E000701E00001F8003F0007F800000000001E7
:1009F000C03E0000E01F0000180003C0006F800030
:100A000000000001C0370000E01B8000000000C0B3
:100A1000000F800000000000000000000000000047
:100A200000000000000000000000000000000000C6
:100A300000000000000000000000000000000000B6
:100A400000000000000000000000000000000000A6
:100A5000000000000000000007C0000000000000CF
:100A6000000000000000000000F000000FF0000097
:100A7000F8000000000001E00000000003F80000A2
:100A80000FF80001FE0000000000001F0000000041
:100A900007FC000001FC0001FFC000000000001F77
:100AA000000000001FFC0000007E00003FF000007E
:100AB00000000007C00000007FFE0180003F8000B2
:100AC0000FF8000000000001F0000000FFFF01C06F
:100AD000001FC00007FE000000000001FC00000035
:100AE000FFFF01C0007FE00003FF000000000001E5
:100AF000FE000000FFFE03C001FFE0000FFF8000CA
:100B0000003C00007F0000007FFC03C003FFE0000A
:100B10003FFFC00000FE00007F800001FFFE07C015
:100B20000FFFE0007FFFE00001FF00007FC000003A
:100B3000FFFF0F803FFFC001FFFDE00007FF000047
:100B40007FE00003FFFF1F807FFFE007FFF8F0005A
:100B50001FFF80007FE0001FFFFE3F007FFFE00FD0
:100B6000FFFC70003FFFC0003FF0003FFFFEFE00B3
:100B70007FFFE00FFFFC38003FFFC0003FF0003F69
:100B8000FFFFFC003FFFC00FFFFC18003FFF80008D
:100B90003FF8007FFFFFF800FFFF0007FFF810009D
:100BA0001FFF00003FF8007FFFFFF8007FFF801F5E
:100BB000FFE000007FFF80003FFC007EFFFFF001B0
:100BC000FFFF800FFFF000003FFFC0003FFC007EF2
:100BD000FFFFE001FFFF003FFFF00000FFFFC0004C
:100BE0007FFC003CFFFC0000FFFF003FFFE0000730
:100BF000FFFFE7807FFE0000FFFF0007FFFF801F71
:100C0000FFE0000FFFFFFFC07FFE0001FFFF800F2E
:100C1000FFFF80FFFFF0000FFFFFFFC07FFE00011E
:100C2000F03FD00FFFFF81FFFFF0001FFFFFFFE04D
:100C3000FFFE0003E00FF00FFFFF81FFFFF0001F3A
:100C4000FFFFFFFFFFFC0003E007E00FFFFF81FF56
:100C5000FFF0001FBFFFC7FFFFF000038007800702
:100C6000FFFF01FFFFF0001FBFFF83FFFF800007B2
:100C700000018007FFFF00FFFFE0000F3FFF01FFC3
:100C8000F000000700000003FFFF00FFFFE000008E
:100C90007FFE01E000000000000000007FFE007FFA
:100CA000FFE00000FFFC000000000000000000006A
:100CB0007C3C000FFFC00000F83C0000000000007A
:100CC00000000000F87E000F87800001F07E000029
:100CD0000000000000000000F87E001F0FC00001AF
:100CE000F07E00000000000000000000E03C001F5B
:100CF0000FC00001C03C0000000000000000000127
:100D0000C03E001C07800003807C00000000000043
:100D100000000001C037003807C00003806E0000EB
:100D200000000000000000000000003806E00000A5
:100D300000000000000000000000000000000000B3
:100D40000000000000000000000000A047000000BC
:100D50000000000000000000000000000000000093
:100D6000000000000000003C000000000000000344
:100D7000C00000000000003C000000C200000000B5
:100D8000F000000C20000000000000C200000189FB
:100D90000000000308000018900000000000018916
:100DA0000000079D00000006241C0079D000000010
:100DB0000000079D00001F9D8000001E741201F9B5
:100DC000D800000000001F9D800022084000007E27
:100DD000760A022084000000000022084000220061
:100DE00040000088210902200400000000002200C9
:100DF00040003FFF80000088010903FFF800000069
:100E000000003FFF80001FC7000000FFFE0900FC3C
:100E10007000000000001FC700C07FB78000007F87
:100E20001C0900FB7800000000007FB780A03C8018
:100E3000406003FEDE1103C80400000000003C8097
:100E400040A0FC88405003F2011107C88400000054
:100E50000000FC884120E7CF805001F2211103FC03
:100E6000F8000000000707CF812041DF80901E1F9F
:100E70003E120FFDF80000000008C1DF822380F958
:100E8000C09021077E7E027F9C000000000C38F994
:100E9000C4446CFFC11020C3E7B2047FFC00000013
:100EA000001030FFC84618FFC2203CF3FF32043F59
:100EB000FC000000001F607FD084107FC4204763C7
:100EC000FF3204CFFC0000000011A03FF105F03F0D
:100ED000C8404A41FF240385FC0000000012BFC740
:100EE000EE023FE3B8803C40FF3803088800000072
:100EF000000F20C5E4025862B700007F8EC003498E
:100F00008800000000003FFFC401FFFFF20000C1A5
:100F10008A00037FFC18000000007FFE88003FFF6E
:100F2000620003FFFF80017FF3E8000000007C3CCB
:100F3000F0003E1E440004FFFF40007FE008000078
:100F40000000884200004421780006781F280042F3
:100F5000703000000000F86200007C310000194091
:100F600006380063CFC000000000A03C0000501E07
:100F70000000078002F0007E800000000001403E7B
:100F80000000A01F0000180003C0006E80000000D9
:100F9000000140370000A01B8000000000C0000ED0
:100FA00080000000000000000000000000000000C1
:100FB0000000000000000000000000000000000031
:100FC0000000000000000000000000000000000021
:100FD0000000000000000000000000000000000011
:100FE00000000000000007C000000000000000003A
:100FF00000000000000000F0000008300000F800D1
:1010000000000000000000000000030800000E08BF
:1010100000010000000000000000000000000624A5
:10102000000001840001C00000000000000000007A
:1010300000001E74000000420000300000000000AC
:101040000000000000007E76018000238000080080
:101050000000000000000000000088210140001294
:1010600040000400000000000000000000008801B3
:101070000140007C20000240000000000000000051
:101080000000FFFE0240018720000F800000003CAE
:101090000000000000007F1C02400313A00030E0AD
:1010A000000000C2000000000001FEDE04400F3B13
:1010B000E000627400000189000000000000F201FD
:1010C00008803F3BC001E77C0000079D0000000056
:1010D0000003F22110804410A007E77800001F9D54
:1010E00080000000001C1F3E21004400A008821464
:1010F00000002208400000000023077EE2007FFF7E
:101100002008801400002200400000000030E3E7C7
:101110005C003F8EC00FFFE400003FFF8000000036
:101120000040C3FFC800FF6F0007F1D800001FC7D1
:1011300000000000007D81FF88007900801FEDE045
:1011400000007FB780000000004680FF1001F9100A
:10115000800F201000003C8040000000004AFF1F6C
:10116000E001CF9F003F22100000FC8840000000FB
:10117000003C8314000083BF0039F3E0000707CF71
:10118000E78000000000FFFF000701F3801077E018
:101190000008C1DF984000000001FFFE8008D9FF71
:1011A00080E03E70000C38F9C9C000000001F03E3C
:1011B000500C31FF811B3FF0001030FFCB200002AC
:1011C0000002200C700820FF81863FF0001F607F26
:1011D000FF9E000C0003E005E00BE07F81041FF0A0
:1011E0000011A03FC6F800700002800780047FC78E
:1011F000017C0FF00012BFC782080F8000050001BC
:101200008004B0C5008FF8E0000F2045010FF0000A
:10121000000500000003FFFF009618A000007FFEFD
:1012200001E000000000000000007FFE007FFFE002
:101230000000FFFC000000000000000000007C3CFB
:10124000000FFFC00000F83C00000000000000009C
:1012500000008842000F878000011042000000005B
:10126000000000000000F862001108400001F06278
:1012700000000000000000000000A03C001F0C4027
:101280000001403C00000000000000000001403E62
:10129000001407800002807C0000000000000000B5
:1012A00000014037002807C00002806E00000000E7
:1012B0000000000000000000002806E00000000020
:1012C000000000000000000000000000000000001E
:1012D00000000000000000000003053F213F12084D
:1012E000120A100A0E1C0E0C1E0C141A14161F16CD
:1012F0001E131E1E1B1E1E1F1E3F213F3A2F3A1794
:101300003D173F213F181F02040A041F0E04040E5C
:101310001F0A1F0A0E0E1F04110E2E252E2F2A2E15
:10132000262929021F02081F08150E04040E150E97
:1013300015151B151B040604040C040000000017FF
:10134000000300031F0A1F16371A1904130A153A5F
:10135000000300000E11110E000A040A040E04001E
:1013600030000404040010001804031F111F121F92
:10137000101D151711151F07041F17151D1F151D0B
:1013800001011F1F151F17151F000A00003200045E
:101390000A110A0A0A110A040115020E11171E0584
:1013A0001E1F150A0E110A1F110E1F15111F050110
:1013B0000E111D1F041F111F1108100F1F041B1FEA
:1013C00010101F061F1E040F0E110E1F09060E110E
:1013D0002E1F051A121509011F011F101F0F180FCC
:1013E0001F0C1F1B041B031C03191513001F1103E3
:1013F0000418111F000201022020200001020C121B
:101400001E1F120C0C12120C121F0C1A14041E05B3
:10141000242A1E1F021C141D1020201D1F08141139
:101420001F101E041E1E021C0C120C3E0A040C127D
:101430003E1E040214160A020F120E101E0E100E8B
:101440001E081E120C1226281E322A26041E2100F7
:101450001F00211E040102013F213F0A0A153A49DB
:10146000676E6F7265006D560A0A504C45415345D0
:10147000205455524E204F464620004C4F57204294
:101480004154544552592120000500893008023842
:1014900002497868140000F6E8DBCFC3B8AEA49B1D
:1014A000928A827B746E68625C57524E4945413E17
:1014B0003A3734312E2C29272523211F1D1C1A19B8
:1014C00017161514131211100F0E0D0C0B0A090824
:1014D0000706DA14D6140101FF030101F703000027
:1014E00000080002010000030407000000000000E3
:1014F00000000102040810204080010204081020AE
:101500000102040810200404040404040404020278
:10151000020202020303030303030000000023008E
:101520002600290000000000250028002B000000F4
:101530000000240027002A00211711241FBECFEF2E
:10154000D8E0DEBFCDBF11E0A0E0B1E0EAE8F6E709
:1015500002C005900D92A43AB107D9F726E0A4EA9B
:10156000B1E001C01D92A93CB207E1F715E1CAE361
:10157000D5E104C02297FE010E94B53AC833D107D5
:10158000C9F70E94DE350C94433B0C940000FC012B
:10159000848583FF0DC084A195A1A6A1B7A1448D28
:1015A000558D668D778D841B950BA60BB70B03C0ED
:1015B00080E090E0DC01811520E89207A105B105EB
:1015C00020F08FEF9FE7A0E0B0E008950C960C9418
:1015D0001A2B0C960C943A2A0C960C945F28CF93F5
:1015E000DF931F92CDB7DEB741E050E0BE016F5FE1
:1015F0007F4F0C960E941B27019719F4898190E078
:1016000002C08FEF9FEF0F90DF91CF910895895B1C
:101610009D4F0C94BD25895B9D4F0C942426CF9340
:10162000DF931F92CDB7DEB7698341E050E0BE0182
:101630006F5F7F4F0C960E941A2B0F90DF91CF9116
:101640000895DC01643508F053C0403308F050C001
:1016500090968C919097342F359535953595E62F4A
:10166000FF27E7FDF095242F2770823099F4DF01E2
:10167000AA54BB4F84E53802A00DB11D11248C91F2
:1016800090E0022E02C0959587950A94E2F7809526
:10169000817009C0833039F446271C968C91482705
:1016A00040FF03C014C0811112C084E53802E00D70
:1016B000F11D1124EA54FB4F81E090E0022E01C09D
:1016C000880F0A94EAF780959081982310C084E5EA
:1016D0003802E00DF11D1124EA54FB4F81E090E047
:1016E000022E01C0880F0A94EAF79081982B90830C
:1016F00008958CE794E00E94C3186AE670E08CE7D6
:1017000094E00E9415368CE794E00E94D41888E596
:1017100091E0EEEFFFE3099422E04AE06DE274E02D
:1017200086E294E00E940E25882331F186E094E061
:101730000E948C2A61E08FED91E00E94C6328823DE
:1017400049F06FED71E086E094E00E940127882364
:1017500099F008C060E08FED91E00E94C6328111DF
:10176000F0CF089580910604807731F086E094E010
:101770009093BF068093BE060895CF92DF92EF92BA
:10178000FF92CF93DF93CDB7DEB7AC970FB6F89447
:10179000DEBF0FBECDBF1D861E861C821B8288EE5B
:1017A00093E0A0E0B0E08D839E83AF83B88788E8A4
:1017B00091E09A83898321E040E651E066E074E09D
:1017C000CE010D960E94952A80E2FE013D96AFEB78
:1017D000B1E001900D928A95E1F78B819C81909305
:1017E000B6018093B5018D819E81AF81B8858093CC
:1017F000B7019093B801A093B901B093BA0189855C
:101800009A85AB85BC858093BB019093BC01A09366
:10181000BD01B093BE0183EB91E00E94E5376B01FF
:101820007C018FEB91E00E948C2A8AE0C816D104DB
:1018300014F40E94790B1D861E861C821B8288EE82
:1018400093E0A0E0B0E08D839E83AF83B88788E803
:1018500091E09A83898323E540E651E066E074E0F5
:10186000CE010D960E94952A80E2FE013D96AFEBD7
:10187000B1E001900D928A95E1F78B819C81909364
:10188000B6018093B5018D819E81AF81B88580932B
:10189000B7019093B801A093B901B093BA018985BB
:1018A0009A85AB85BC858093BB019093BC01A093C6
:1018B000BD01B093BE016AE671E083EB91E00E9446
:1018C00055368FEB91E00E948C2A86EF8C0D809329
:1018D000AA01AC960FB6F894DEBF0FBECDBFDF9164
:1018E000CF91FF90EF90DF90CF9008950F931F93CB
:1018F000109234011092350140E050E060E071E454
:101900004093360150933701609338017093390149
:1019100040E050E06CE372E440933A0150933B01A5
:1019200060933C0170933D0110923E0110923F0183
:101930001092400110924101109242011092430115
:10194000109244011092450194E6909347019093C0
:10195000480123E020934901F5E0F0934A011092F9
:101960004B01E6E0E0934C0110924E0110921201FF
:101970001092130100E010E02CE932E4009314010E
:10198000109315012093160130931701409318010D
:101990005093190160931A0170931B0110921C015E
:1019A00010921D0110921E0110921F011092200131
:1019B000109221011092220110922301909325018F
:1019C0009093260192E090932701F093280191E0F3
:1019D00090932901E0932A0110922C01882321F091
:1019E00010924F0110922D0181E08093A501109279
:1019F000B2011092B1011092B0011092AF01109299
:101A0000AE011092AD011F910F91089581E00C94E9
:101A1000760C2F923F924F925F926F927F928F92AD
:101A20009F92AF92BF92CF92DF92EF92FF920F936D
:101A30001F93CF93DF9300D000D000D0CDB7DEB797
:101A40009E838D833B01FC012589332727FD30953B
:101A5000432F532F60919F047091A0048091A104A3
:101A60009091A2040E94673A672B682B692B31F48E
:101A7000ED81FE8181818F5F81708183ED81FE81A7
:101A8000818D181614F48150818FED81FE8181A122
:101A9000882311F0815081A3ED81FE81808D18167D
:101AA00014F48150808FED81FE81848D882311F0A4
:101AB0008150848FED81FE818389C284D384E48444
:101AC000F584181694F5808D811133C080818823A8
:101AD00081F1853071F1893061F191A1911129C0B5
:101AE000863011F485E024C0ED81FE81828D88234B
:101AF00011F087E01DC02DEC3CEC4CEC5DE3C70120
:101B0000B6010E94D53887FF0EC02DEC3CEC4CECA2
:101B10005DEBC701B6010E94BC39181624F4ED81B3
:101B2000FE81108206C081E001C089E0ED81FE8166
:101B30008083ED81FE81008110E0000F111F818103
:101B4000080F111DF801EE0FFF1FEE0FFF1FE156EA
:101B5000F84F2490F801EE0FFF1FEE0FFF1FE05625
:101B6000F84F0491F3018080912C880C991C81819D
:101B7000880E911CF401EE0FFF1FEE0FFF1FE156C0
:101B8000F84FA490F401EE0FFF1FEE0FFF1FE05679
:101B9000F84F849020E030E0A901C701B6010E940F
:101BA000BC3918162CF4ED81FE818789882379F0E1
:101BB00020E030E0A901C701B6010E94D53887FFB7
:101BC00050C0ED81FE818789882309F44AC0912C99
:101BD00010E0B12CB401882777FD8095982F0E94E2
:101BE0000C399B01AC01F301668177818085918579
:101BF0000E9470380E94D9386B017C01F301628128
:101C00007381848195810E94D9382B013C01312C4C
:101C1000B801882777FD8095982F0E940C399B0189
:101C2000AC01ED81FE8166817781808591850E947E
:101C300070380E94D93869837A838B839C83ED81C5
:101C4000FE8162817381848195810E94D9387201FD
:101C5000910149815A818EE294E00E9439218111DB
:101C600000C1ED81FE81828DC284D384E484F58439
:101C7000811144C020E030E0A901C701B6010E94F3
:101C8000D5388823F9F0A7019601ED81FE816281A4
:101C90007381848195810E947138ED81FE81628318
:101CA0007383848395832DEC3CEC4CEC5EE3C7019D
:101CB000B6010E94C039ED81FE81628773878487F7
:101CC0009587A4C02DEC3CEC4CEC5DE3C701B6015C
:101CD0000E94D53887FF9AC02DEC3CEC4CEC5DEBB4
:101CE000C701B6010E94BC3918160CF08FC0ED81F7
:101CF000FE81128613861486158688C0ED81FE81CA
:101D000086849784A088B1882AE939E949E95FEB9C
:101D1000C501B4010E94D53887FF07C026E636E624
:101D200046E65FE3C501B4011DC020E030E0A90133
:101D3000C501B4010E94D53887FF0AC0B7FAB09434
:101D4000B7F8B094ED81FE8186869786A08AB18A25
:101D500026E636E646EA5FE3ED81FE816685778515
:101D6000808991890E94C0399B01AC01ED81FE817F
:101D700066877787808B918B668177818085918557
:101D80000E947138ED81FE81668377838087918719
:101D9000A7019601ED81FE81628173818481958125
:101DA0000E947138ED81FE81628373838483958301
:101DB00026E636E646E65FE3C701B6010E94C03973
:101DC000ED81FE81628773878487958720E030E00C
:101DD0004CE352E466817781808591850E94BC390D
:101DE00087FD14C080E090E0ACE3B2E4ED81FE81B9
:101DF00086839783A087B187128E16861786108AEE
:101E0000118A1286138614861586108EED81FE8146
:101E1000C280D380E480F58020E030E0A901C701D2
:101E2000B6010E94D53887FF07C0ED81FE8112827E
:101E30001382148215821CC020E030E048EA52E48C
:101E4000C701B6010E94BC39181694F480E090E0F6
:101E5000A8EAB2E4ED81FE8182839383A483B583F3
:101E600007C0ED81FE811286138614861586F9CE91
:101E700026960FB6F894DEBF0FBECDBFDF91CF918F
:101E80001F910F91FF90EF90DF90CF90BF90AF9098
:101E90009F908F907F906F905F904F903F902F908A
:101EA0000895CF92DF92EF92FF92CF93DF93EC01F0
:101EB0008B89882309F43CC09A8D898D91111CC0AF
:101EC0009F89911109C092E09C8F18168CF140E017
:101ED00050E060E87FEB06C0181654F140E050E097
:101EE00060E470EC4A875B876C877D87888D181665
:101EF000FCF081E088831CC01816D4F0CA84DB840F
:101F0000EC84FD8420E030E040E450ECC701B601F1
:101F10000E94BC39181664F42DEC3CEC4CEC5DE3EB
:101F2000C701B6010E9470386A877B878C879D87BE
:101F3000DF91CF91FF90EF90DF90CF900895CF92F7
:101F4000DF92EF92FF92CF93DF93EC018B8988238E
:101F500009F43CC09A8D898D91111CC09F899130E4
:101F600049F492E09C8F18168CF140E050E060E854
:101F70007FE306C0181654F140E050E060E470E4DE
:101F80004A875B876C877D87888D1816FCF081E017
:101F900088831CC01816D4F0CA84DB84EC84FD84CA
:101FA00020E030E040E450E4C701B6010E94D5389B
:101FB00087FF0CC02DEC3CEC4CEC5DE3C701B60197
:101FC0000E9471386A877B878C879D87DF91CF91CC
:101FD000FF90EF90DF90CF900895FC01858D8617DC
:101FE00031F0978D90A3968D978F868F658F80E0C7
:101FF0000895CF93DF93EC01898D1816C4F08B8977
:102000008823A9F061E0CE010E94ED0F81110FC07D
:102010008A8D81110CC082E0888381E08A8F40E044
:1020200050E060E87FEB4E875F87688B798BDF91AC
:10203000CF9108950F931F93CF93DF93162F98E0BE
:10204000899FE0011124C459DE4F062F20E04E8104
:1020500060E083E594E00E94DC2120E0488161E0BB
:1020600083E594E00E94DC212C8121954D8162E082
:1020700083E594E00E94DC212A812A534B8163E0AE
:1020800083E594E00E94DC21212F4F81698183E563
:1020900094E0DF91CF911F910F910C940D222F921C
:1020A0003F924F925F926F927F928F929F92AF92E8
:1020B000BF92CF92DF92EF92FF920F931F93CF9335
:1020C000DF9300D000D000D0CDB7DEB71C017E83F7
:1020D0006D83DB01EC91F0E0EE0FFF1F11968C9108
:1020E000E80FF11DEE0FFF1FEE0FFF1FE056F84F38
:1020F0008490F1018081833009F0ABC0912CB40150
:10210000882777FD8095982F0E940C399B01AC01A0
:10211000AD81BE8116966D917D918D919C9119979F
:102120000E9470380E94D9386B017C01ED81FE81DC
:1021300062817381848195810E94D9382B013C0191
:1021400020E030E040E651E4D10116966D917D919A
:102150008D919C9119970E9470380E94D93869839B
:102160007A838B839C8320E030E040E850E4F101E7
:1021700062817381848195810E9470380E94D93870
:10218000E6E0AE2EB12C720103E010E02EE030E06C
:1021900049815A818EE294E00E943921882309F412
:1021A00058C0AD81BE815C968C91882309F44FC0E4
:1021B000D10159968C915997865F59968C9392E0EC
:1021C000ED81FE818389891B838B87FF05C0138A7C
:1021D00060E082E00E941A10AD81BE8157969C910A
:1021E000579753968C91911112C018162CF480E0D9
:1021F00090E0A0E4B0EC11C080E090E0A0E9B1EC88
:10220000ED81FE8182879387A487B5871BC018164E
:102210005CF480E090E0A0E4B0E4ED81FE81828790
:102220009387A487B58715C080E090E0A0E9B1E46A
:10223000ED81FE8182879387A487B58780E090E057
:10224000A0E9B1EC86879787A08BB18B02C095E09F
:10225000B7CF26960FB6F894DEBF0FBECDBFDF9185
:10226000CF911F910F91FF90EF90DF90CF90BF9093
:10227000AF909F908F907F906F905F904F903F9026
:102280002F900895CF93DF93EC018B89882381F001
:10229000898D18166CF060E081E00E941A108A8D1A
:1022A000811104C083E0888386E0888F87E0898F6E
:1022B000DF91CF910895CF93DF93EC0141E062E08D
:1022C00088E394E00E948818882321F0CE010E94C0
:1022D0009F0F0BC041E060E088E394E00E94881803
:1022E000882319F0CE010E94510F61E088E394E049
:1022F0000E947F18882321F0CE010E94F90F06C0AA
:1023000041E063E088E394E00E94881864E088E399
:1023100094E00E947F18882329F0CE01DF91CF91AD
:102320000C94421165E088E394E0DF91CF910C9426
:102330007F180F931F93CF93DF931F92CDB7DEB714
:102340008C018091AB01813021F524E630E040E042
:1023500050E060E070E0CB010E940C38683278F405
:10236000C80169830E949F0F69816B3090F4C80196
:102370000F90DF91CF911F910F910C944211623316
:1023800040F4C8010F90DF91CF911F910F910C94F1
:10239000510F0F90DF91CF911F910F9108952F92C0
:1023A0003F924F925F926F927F928F929F92AF92E5
:1023B000BF92CF92DF92EF92FF920F931F93CF9332
:1023C000DF93CDB7DEB729970FB6F894DEBF0FBE07
:1023D000CDBF882E962E3801F6013491C6010296A3
:1023E0009A83898392E0A90EB11CA32FB0E01796BF
:1023F00053E0B595A7955A95E1F7B987A887EA9E66
:102400001001EB9E300CFA9E300C1124C12CD12C03
:10241000E12CF12CE22FFF27E7FDF095FD83EC8303
:10242000242F332727FD30953F832E832C813D8138
:10243000E216F3060CF054C02601420C531C00E0D7
:1024400010E0392D3E0D3B83C801860D971D2E816E
:102450003F81021713070CF03BC09C0197FF02C09D
:10246000295F3F4F43E0359527954A95E1F7240DC5
:10247000351DF501E20FF31FE49168E070E00E9462
:10248000533A40E850E002C0559547958A95E2F7E7
:10249000F0E0E423F523EF2BC1F0E981FA81E20FAC
:1024A000F31F249130E024233523232B11F061E026
:1024B00001C060E08CE794E00E941C194B81682DFC
:1024C000600F8CE794E00E94210B0F5F1F4FBCCF81
:1024D0003FEFE31AF30A28853985C20ED31EA6CF33
:1024E00061E08CE794E029960FB6F894DEBF0FBE4A
:1024F000CDBFDF91CF911F910F91FF90EF90DF90B3
:10250000CF90BF90AF909F908F907F906F905F9093
:102510004F903F902F900C941C192F923F924F9206
:102520005F926F927F928F929F92AF92BF92CF9263
:10253000DF92EF92FF920F931F93CF93DF93CDB76C
:10254000DEB72E970FB6F894DEBF0FBECDBF782E44
:10255000662E942E522E4BA0FF24E7FCF09481109F
:1025600020C041101EC0112707FD10950E94CF11F9
:102570002E960FB6F894DEBF0FBECDBFDF91CF9180
:102580001F910F91FF90EF90DF90CF90BF90AF9091
:102590009F908F907F906F905F904F903F902F9083
:1025A0000895F601849196012E5F3F4F3A83298367
:1025B00095012E5F3F4F3C832B83C82ED12C37E0F3
:1025C000C30ED11C73E0D594C7947A95E1F7EC9CC7
:1025D0009001ED9C300DFC9C300D11243E832D8329
:1025E000A12CB12CE12CF12C252D332727FD309582
:1025F00039872887202F332727FD30953B872A8767
:10260000292D332727FD30953D872C87288539854F
:10261000E216F3060CF068C02D803E802A0C3B1CAD
:1026200000E010E08E2C352D3E193F838A859B8576
:10263000800F911F2C853D85021713070CF04EC0AB
:102640009C0197FF02C0295F3F4F63E035952795B6
:102650006A95E1F7220D331DEB81FC81E20FF31F38
:10266000E49168E070E00E94533A40E850E002C014
:10267000559547958A95E2F7F0E0E423F523EF2B93
:1026800051F1E981FA81E20FF31F249130E0242314
:102690003523232B11F061E001C060E08CE794E06A
:1026A0000E941C19602F882D442051F0242D237086
:1026B00040FE02C0692D601B41FE03C08F8101C036
:1026C00020E0670D482F460D8CE794E02E870E948E
:1026D000210B2E85422E0F5F1F4FA8CF3FEFE31A2D
:1026E000F30AAC0CBD1C92CF61E08CE794E02E960F
:1026F0000FB6F894DEBF0FBECDBFDF91CF911F9113
:102700000F91FF90EF90DF90CF90BF90AF909F9090
:102710008F907F906F905F904F903F902F900C9490
:102720001C198F929F92AF92BF92CF92DF92EF923D
:10273000FF920F931F93CF93DF93EC012881898140
:1027400090E0820F911D820F911DFC01EE0FFF1F83
:10275000EE0FFF1F61111BC0E356F84F0491FC01FF
:10276000EE0FFF1FEE0FFF1FE256F84FE490FC0143
:10277000EE0FFF1FEE0FFF1FE156F84F1491FC0103
:10278000EE0FFF1FEE0FFF1FE056F84F1AC0E35881
:10279000F84F0491FC01EE0FFF1FEE0FFF1FE258F0
:1027A000F84FE490FC01EE0FFF1FEE0FFF1FE15802
:1027B000F84F1491FC01EE0FFF1FEE0FFF1FE058C2
:1027C000F84FF4906F2D70E080E090E00E940C399B
:1027D0009B01AC016E817F81888599850E9470384C
:1027E0000E94DE38962EDF88D11005C06A817B8179
:1027F0008C819D810EC0612F70E080E090E00E948E
:102800000C399B01AC016A817B818C819D810E9486
:1028100070380E94DE38862FDF92812CEDEBAE2ED1
:10282000E7E0BE2EFBE4CF2EFDE0DF2E2F2D412F63
:10283000692D0E948D120F90DF91CF911F910F9102
:10284000FF90EF90DF90CF90BF90AF909F908F90D0
:1028500008950F93CF93DF936091AA0184E391E0F1
:102860000E94911361E08091AA01811160E082E1F0
:1028700091E00E9491138091470166E00E94333AF3
:10288000D82FC0E0CD1761F06C2F660F6B5F04E0AE
:10289000262F41E08CE794E00E949319CF5FF2CF9E
:1028A0008091470166E00E94333AD82FC0E0CD17EF
:1028B00069F06C2F6195660F625B04E0262F41E0A2
:1028C0008CE794E00E949319CF5FF1CFDF91CF9115
:1028D0000F9108952F923F924F925F926F927F9245
:1028E0008F929F92AF92BF92CF92DF92EF92FF9220
:1028F0000F931F93CF93DF9300D000D01F92CDB7DB
:10290000DEB789836A837901FA0184903196449015
:102910001A01F2E02F0E311C42E0E40EF11C912C62
:10292000540157E0A50EB11CA3E0B594A794AA9555
:10293000E1F7C12CD12C00E010E0512CB0E86B2E57
:10294000712C041515050CF04AC01D821C82FA81F9
:10295000F00FFB83EC81FD81E815F9050CF03AC01E
:102960008C819D81F3E095958795FA95E1F78C0D23
:102970009D1DF701E80FF91FE4912C813D8127701F
:102980003327A30102C0559547952A95E2F7F0E059
:10299000E423F523EF2BC1F0F101E80FF91F849137
:1029A00090E084239523892B11F061E001C060E061
:1029B0008CE794E00E941C194B816C815981650F52
:1029C0008CE794E00E94210B8C819D8101969D8370
:1029D0008C83C0CF0F5F1F4FCA0CDB1CB2CF61E0EE
:1029E0008CE794E00F900F900F900F900F90DF9175
:1029F000CF911F910F91FF90EF90DF90CF90BF90FC
:102A0000AF909F908F907F906F905F904F903F908E
:102A10002F900C941C198EE18093AC0180E580937B
:102A2000A7011092AB011092A9011092A80108957C
:102A30000E94060D0E940B1581E08093A401109264
:102A4000460469E28EE294E00E94721E1092A60192
:102A500008958EE294E00E94DE200E9418150E94E4
:102A60008C0B0C94BD0BCF938091A701882319F098
:102A700081508093A7018091AB0181110DC080919D
:102A8000A701833121F48DE08093A90105C0811154
:102A900003C081E08093AB018091AB01813051F4A0
:102AA0008091AC01811106C083E08093AB018CE37F
:102AB0008093A70180914701882321F0809125010F
:102AC00081110AC08091AB01823031F082E08093A5
:102AD000AB018CE38093A701C091AB01C130B9F485
:102AE00060919F047091A0048091A1049091A20430
:102AF00024E130E040E050E00E94673A672B682B09
:102B0000692B29F48091AC0181508093AC01C250B3
:102B1000C23068F48091A7018E3120F08E518093ED
:102B2000A80105C0811103C084E08093AB01CF915F
:102B30000895CF9363E08CE794E00E941C1929E686
:102B400033E040E060E08CE794E00E948A1B61E0A3
:102B50008CE794E00E941C198091AB018230B9F09F
:102B6000833039F181112FC08091A70164E10E9467
:102B7000333AE82FF0E0EE0FFF1FE65FFE4F2081B3
:102B8000318167E28091A901681B42E118C0809100
:102B90004701909125018917B1F0811103C029E9FE
:102BA00036E002C02BE536E04091A8014E5E6DE1B3
:102BB00006C04091A8014E5E27ED36E065E18CE746
:102BC00094E00E948A1B2BE735E04BEE55E060E075
:102BD00080E00E946A142091AC01822F6AE00E947A
:102BE000333AC22F9AE0899FC019112497E290933B
:102BF000850491E0909386044AE050E0682F8CE7CA
:102C000094E00E941F378AE2809385044AE050E0F6
:102C10006C2F8CE794E0CF910C941F3780E00E94DA
:102C2000760C0C940B158091AB01843028F4823023
:102C300078F4813021F03DC0843021F13AC0809198
:102C4000A6018230B1F184E391E00E945B1131C0B2
:102C50008091A501882369F1909147018091250118
:102C6000981769F0891734F480914F018F5F809332
:102C70004F0105C080912D018F5F80932D0110922F
:102C8000A50117C080914F01833021F080912D0163
:102C9000833069F48091A601823029F410924F01AB
:102CA00010922D0104C084E08093A60102C00E940E
:102CB0000E1662E171E084E391E00E94090D64E385
:102CC00071E082E191E00E94090D209114013091A0
:102CD00015014091160150911701609136017091D4
:102CE000370180913801909139010E94D53887FFD2
:102CF00006C010924B0181E08093290105C081E05C
:102D000080934B011092290180914C01181634F4E4
:102D100062E171E084E391E00E944F1080912A010A
:102D2000181634F464E371E082E191E00C944F10E2
:102D3000089561E088E394E00E947F1881111EC02D
:102D400063E088E394E00E947F18811117C064E07B
:102D500088E394E00E947F188823B9F081E00E9404
:102D6000760C0E940B158091A401882319F0109213
:102D7000A601089583E08093A60108958091A4019F
:102D800091E089278093A401E2CF089580914F01BB
:102D9000833019F42AEA30E002C027E232E048E04A
:102DA0006CE08CE794E00E948A1B80914F01833095
:102DB00019F42CEE31E002C026E132E041E06AE095
:102DC0008CE794E00E948A1B88E2809385048091BE
:102DD000A401882311F088E001C08EE0809386046E
:102DE00068E670E08CE794E00C9415368EE294E08F
:102DF0000E94AB1F882321F166E088E394E00E94E3
:102E00007F18882319F083E08093A6018091A601A2
:102E1000833011F40C94790B843021F40E949916BC
:102E20000C94C6160E94131664E371E082E191E0EF
:102E30000E9499110E9433150E9499150C9429142F
:102E4000089510927F0410927E0480EA91E090939E
:102E50007D0480937C041092E40110920604109289
:102E6000070489E18093290410922C0488E991E0F9
:102E70009093E0018093DF011092BF011092C00196
:102E80001092B6011092B50188EE93E0A0E0B0E098
:102E90008093B7019093B801A093B901B093BA01A0
:102EA00088E891E09093B4018093B3010895CF93A3
:102EB000CFB7F8948091B504811127C0E0E1F5E126
:102EC0008491ECEFF4E19491E82FF0E0EE0FFF1F16
:102ED000E25DFA4EA591B4918C91892321F461E0D1
:102EE0008AE00E947E3561E08AE00E9445358CB51B
:102EF00080618CBD8CB580648CBD61E08DE00E94EA
:102F0000453561E08BE00E9445358091B5048F5FC7
:102F10008093B504CFBFCF91089521E0FC012083B9
:102F2000089570E085E00C94BD34AF92BF92CF92CB
:102F3000DF92EF92FF920F931F93CF93DF93EC01F9
:102F400089819A812FE0289F8001299F100D1124EB
:102F500085E10E94A034800F911F24E0969587950B
:102F60002A95E1F79A8389832881222391F1AC8104
:102F7000AD80B12CC12CD12CE885F9857F0100E012
:102F800010E06E817F819B0140E050E0861797073B
:102F900028F0BC01E817F90708F4BF0180E090E0D1
:102FA0001F921F921F92AF930E9428386B830F903D
:102FB0000F900F900F9070E085E0DF91CF911F91FF
:102FC0000F91FF90EF90DF90CF90BF90AF900C9457
:102FD000BD34DF91CF911F910F91FF90EF90DF9063
:102FE000CF90BF90AF900895FC018CE39FE0938356
:102FF000828384E0818381E084870895CF93DF9387
:10300000EC018C819D81892B81F18C858F7151F52B
:1030100084E10E94A034BC01882777FD8095982F19
:103020000E940C3926EE3FE34EEC50E40E94C0397A
:103030000E94DE389B017B836A836115710581F0F4
:1030400084E08983FE0140E0848195812817390757
:1030500010F449830AC04F5F32964430A9F702C08A
:103060008FEF89838C858F5F8C87DF91CF91089557
:10307000FC0188E0808389E0818387E0828386E0A9
:10308000838384E0848382E0858381E1868308955D
:10309000DF92EF92FF920F931F93CF93DF937C0108
:1030A000EC0100E010E0DD24DA9462E088810E9407
:1030B000453588810E94B435F701E00FF11F892B57
:1030C00021F487818F5F878308C08781882349F037
:1030D0008F3F11F4178201C0D78260E088810E947F
:1030E00045350F5F1F4F219607301105F1F6DF912F
:1030F000CF911F910F91FF90EF90DF900895FC0109
:10310000E60FF11D81E09781913009F080E008958C
:10311000262F30E0FC01E20FF31F8781423028F4B4
:1031200081508E3F48F080E008958F3FE1F3642F97
:103130000E94333A9130B9F781E008958EBD0000C6
:103140000DB407FEFDCF8EB508951F93CF93DF9387
:10315000EC01162FF89460E08F850E947E358889F7
:1031600018161CF460E00E947E35812F0E949E1884
:10317000888918161CF461E00E947E357894DF91EE
:10318000CF911F91089528EF31E0E6EBF4E0DF01E5
:10319000A9011D9241505040E1F7DC0119961C92A3
:1031A00019971A961C920895DF92EF92FF920F934F
:1031B0001F93CF93DF93EC018C858F5F8C8786EB19
:1031C000E82E84E0F82ED12C6D2D6064CE010E9493
:1031D000A51860E8CE010E94A51861E08F850E94C5
:1031E0007E35888918161CF460E00E947E3500E068
:1031F00010E0F701E00FF11F80810E949E180F5F21
:103200001F4F04351105A9F7888918161CF461E0D1
:103210000E947E35D39484E5E80EF11C86E0D81236
:10322000D3CF60E4CE01DF91CF911F910F91FF903A
:10323000EF90DF900C94A518FC0160A361A30895A2
:10324000FC0160A341A30895CF92DF92FF920F93F8
:103250001F93CF93DF931F92CDB7DEB76C01062F7C
:10326000F42E10E0121754F4412F4F0D602FC601B9
:1032700029830E94210B1F5F2981F4CF0F90DF91DA
:10328000CF911F910F91FF90DF90CF900895CF9233
:10329000DF92FF920F931F93CF93DF931F92CDB7CF
:1032A000DEB76C01062FF42E10E0121754F4612FD4
:1032B000600F4F2DC60129830E94210B1F5F2981BA
:1032C000F4CF0F90DF91CF911F910F91FF90DF907E
:1032D000CF900895DF92EF92FF920F931F93CF93B9
:1032E000DF93EC01E62ED22EF42E112707FD109568
:1032F000040F111D47FD1A958F2D992787FD909575
:103300008017910744F42D2D4F2D6E2DCE010E9474
:103310004719F394F1CFDF91CF911F910F91FF9057
:10332000EF90DF900895AF92BF92CF92DF92EF922D
:10333000FF920F931F93CF93DF93EC01162FF42E80
:10334000E22EA02FBB27A7FDB095A41BB10947FD16
:10335000B395B7FF03C0B195A195B109EE2DFF2735
:10336000E7FDF095E11BF10917FDF395F7FF03C0A9
:10337000F195E195F109BB24B394EA17FB0714F02A
:10338000B12C06C08E2DE02E082F812F1F2DF82E78
:10339000E11634F48F2DF02E082F812F1E2DE82EEC
:1033A000CE2CC11AE02FFF27E7FDF095EF19F109A8
:1033B000F7FCF395F7FF03C0F195E195F109AE2E07
:1033C000DC2CC7FE03C0DD24D394DC0CD594F016AE
:1033D00014F401E00FC00FEF0DC0BB2071F0412FBE
:1033E0006F2DCE010E94210BDA18D7FE02C0F00E1D
:1033F000DC0C1F5FE1168CF703C04F2D612FF1CF5E
:10340000DF91CF911F910F91FF90EF90DF90CF90C0
:10341000BF90AF9008958F929F92AF92BF92CF923C
:10342000DF92EF92FF920F931F93CF93DF93EC0104
:10343000E62ED42E122FCC24C394C21AB22EB194ED
:10344000BB0CF12C802F8470A82E802F8270982EB8
:10345000802F8870882E0170F1160CF04DC0C7FCCB
:1034600004C01150B394B394CB0CF3948F2D880FF8
:103470008F5FC80EAA2071F0412F4D0D6F2D6E0D7C
:10348000CE010E94210B4F2D4D0D612F6E0DCE01EF
:103490000E94210B992071F04D2D411B6F2D6E0D57
:1034A000CE010E94210B4D2D4F19612F6E0DCE01C3
:1034B0000E94210B882071F04F2D4D0D6E2D611B48
:1034C000CE010E94210B412F4D0D6E2D6F19CE01A3
:1034D0000E94210B002309F4BFCF4D2D4F196E2DF3
:1034E000611BCE010E94210B4D2D411B6E2D6F19CA
:1034F000CE010E94210BB0CFDF91CF911F910F9190
:10350000FF90EF90DF90CF90BF90AF909F908F9003
:1035100008958F929F92AF92BF92CF92DF92EF92D7
:10352000FF920F931F93CF93DF93EC01B62EA42E3F
:10353000122FDD24D394D21AC22EC194CC0CFF24B6
:10354000F394802F8170882E992493949E0C02709E
:103550008FEF8F0D8117C4F5D7FC04C01150C394B1
:10356000C394DC0C8F2D880F8F5FD80E882099F0C4
:10357000212F220F290D4A2D411B6F2D6B0DCE01DE
:103580000E94241923E02E0D4A2D4F19612F6B0D37
:10359000CE010E942419002399F0212F220F290D1A
:1035A0004A2D411B6B2D6F19CE010E94241923E077
:1035B0002E0D4A2D4F196B2D611BCE010E9424192F
:1035C000F394E394E394C4CFDF91CF911F910F91D3
:1035D000FF90EF90DF90CF90BF90AF909F908F9033
:1035E00008959F92AF92BF92CF92DF92EF92FF9297
:1035F0000F931F93CF93DF93EC01B62EF42EA22EE0
:10360000DE2CD194DD0C9D2C920E1E2D160F292D33
:10361000612F0E944719CC24CA94C00ECF0C292DCB
:103620004C2D612FCE010E944719D00EFE0C2D2D7E
:103630004F2D6B2DCE010E942419BA0C6FEF6B0D2C
:103640002D2D4F2DCE010E94241901E02E2D4F2D3E
:10365000612FCE010E940B1ADE2CD094DB0C02E00D
:103660002E2D4F2D6D2DCE010E940B1ACE1804E089
:103670002E2D4C2D6D2DCE010E940B1A08E02E2D03
:103680004C2D612FCE010E940B1ADF91CF911F911B
:103690000F91FF90EF90DF90CF90BF90AF909F90F1
:1036A0000895AF92BF92CF92DF92EF92FF920F9365
:1036B0001F93CF93DF93EC01A62EC42EB22EF02ED3
:1036C0001E2DE194EE0CD12ED60E2E2D2B0D6D2D30
:1036D0000E946A19FA94FE0CC10E6FEF6A0D6B0D11
:1036E000611BEF2C01E0212F4C2DCE010E94891A85
:1036F00002E0212F4C2D6D2DCE010E94891ADF9101
:10370000CF911F910F91FF90EF90DF90CF90BF90DE
:10371000AF9008956F927F928F929F92AF92BF92D7
:10372000CF92DF92EF92FF920F931F93CF93DF938D
:10373000F901A49031965491FC01F0A064350CF08D
:103740000CC1BB24A7FCB094A62FBB27A7FDB09546
:10375000FD01EA0DFB1D1E161F060CF0FEC04033D6
:103760000CF0FBC0C52E042F112707FD1095E801B2
:10377000C50FD11D57FDDA951C161D060CF0EDC0C6
:10378000E90122969501295F3F4F37FF02C0295F6B
:103790003F4F73E0359527957A95E1F747FF0AC0CB
:1037A000C52EC40E209FA001219F500D1124C41BC3
:1037B000D50B40E00C2D112707FD1095040F111DAE
:1037C00047FD1A95013311051CF070E3C72EC41A8A
:1037D00067FD60E0E535F10514F0E4E5F0E01E2F4B
:1037E000FC0174857427862F992787FD9095FC012D
:1037F000EA1BFB0BDF015F01F7E0AF22BB24E0E82F
:10380000F0E002C0F595E795AA94E2F70E2FB7FD18
:10381000179653E0B595A7955A95E1F7AC0FBD1FE4
:10382000E42FE77051E001C0550FEA95EAF745959E
:1038300045954595E4E54E02800D911D11248A546D
:103840009B4F40E0DD24C7FCD094BB24B3943327C6
:10385000E42FF0E0EC15FD050CF07FC0FD01E490D5
:10386000F1E0FF1219C0EC01A02EFD01862E881A8E
:103870009C2E980C911608F067C09E2C9A2019F087
:103880009880952A9882A69429F43196E4906894B9
:10389000AA24A7F82196ECCFF1101BC0752E7094C6
:1038A000EC01A02EFD01862E881A9C2E980C9116F4
:1038B00008F04AC09E2C9A2019F098809720988290
:1038C000A69429F43196E4906894AA24A7F8219646
:1038D000ECCFE3E0FE1631F0EC01A02EFD01862EC8
:1038E000881A2EC0752E7094962EEC01A02EFD0124
:1038F0009116B0F48E2C8A2049F08880692C6726B6
:1039000060FE02C0852A01C087208882A69429F41F
:103910003196E4906894AA24A7F893942196E8CF6E
:103920007B2512C09E2C9A2019F0988095269882AB
:10393000A69429F43196E4906894AA24A7F82196D5
:103940009C2E980C911670F3550F19F48C5A9F4FBA
:1039500051E04F5FA20FB31F7BCFDF91CF911F913B
:103960000F91FF90EF90DF90CF90BF90AF909F901E
:103970008F907F906F900895DC01FB0184918F5FA1
:1039800014968C9314973196E491EF5F1596EC930F
:1039900015976E5F7F4F5F967C936E935E97089549
:1039A000EF920F93CF93DF93EC014E876D872F87B4
:1039B000E98A088B81E0888788A319A28F8369ED43
:1039C00072E1CE010E94BC1C0E9457178CB58F7DFE
:1039D0008CBD8CB58C7F81608CBD8DB581608DBDBB
:1039E0008CB58C608CBD61E08E850E94453561E0B0
:1039F0008D850E94453561E08F850E944535898916
:103A000018161CF461E00E944535888918161CF4CC
:103A100061E00E944535898918166CF460E00E94C7
:103A20007E356AE070E080E090E00E943D3461E025
:103A300089890E947E358D85992787FD9095FC01A7
:103A4000EA5FFA4EE491F0E0EE0FFF1FEC5DFA4EF4
:103A5000259134913D8B2C8BFC01EE50FB4E8491D3
:103A60008B8F8E85992787FD9095FC01EA5FFA4E32
:103A7000E491F0E0EE0FFF1FEC5DFA4E25913491DA
:103A80003B8B2A8BFC01EE50FB4E84918A8F8889F8
:103A9000992787FD9095FC01EA5FFA4EE491F0E0EA
:103AA000EE0FFF1FEC5DFA4E259134913F8B2E8B6C
:103AB000FC01EE50FB4E84918C8F8F85992787FDFA
:103AC0009095FC01EA5FFA4EE491F0E0EE0FFF1FE3
:103AD000EC5DFA4E25913491398F288FFC01EE5020
:103AE000FB4E84918D8F61E2CE010E94A51864E1A6
:103AF000CE010E94A5188B8587FF02C08FE78B87B8
:103B00006B856068CE010E94A51860E2CE010E941C
:103B1000A5186CE0CE010E94A518CE01DF91CF91CF
:103B20000F91EF900C94D4186F927F928F929F9286
:103B3000AF92BF92CF92DF92EF92FF920F931F93BB
:103B4000CF93DF93EC01162FF42EB02EE8A064354E
:103B50000CF081C08FE284170CF47DC0EC81F0E0A2
:103B600031970E9FC0010F9F900D1124860F911D5C
:103B700067FD9A95181619060CF06DC08D81809F0F
:103B8000C0011124840F911D47FD9A95181619063E
:103B90000CF061C0A62E962EC22ED12C8A2D811B30
:103BA000992787FD90952C8130E0821793070CF0C0
:103BB00051C0215031098217930779F0C29ED0017C
:103BC000C39EB00DD29EB00D1124A80FB91FEE8D6B
:103BD000FF8DEA0FFB1F749001C0712C8F2C6F2C8E
:103BE000282D2F19332727FD30958D8190E0281738
:103BF00039076CF570FE11C081E0B81206C0482D7F
:103C00006A2DCE010E94210B1EC00B2D2B2D462D9F
:103C1000692DCE010E946A1916C089A198A1891741
:103C200091F088A381E0B81206C0482D6A2DCE011C
:103C30000E94210B07C00B2D2B2D462D692DCE0187
:103C40000E946A19E8A276946B0C8394C9CF9B0CEE
:103C5000A394A4CFE8A2DF91CF911F910F91FF9081
:103C6000EF90DF90CF90BF90AF909F908F907F901C
:103C70006F9008950F93CF93DF93EC01262F6A3056
:103C800039F42D8198858A85299F800D112422C0C1
:103C90006D3011F108854A8569850E94941D48851B
:103CA0005C812985549F200D112429878F818823C9
:103CB00099F0332727FD309584E590E0459F8019E2
:103CC00091091124821793073CF49D818A85499FAD
:103CD000800D11248A87198681E090E0DF91CF91D1
:103CE0000F910895CF93DF93FC01462FEC01C1584B
:103CF000DF4F70E088EE93E00E94533A6883842F90
:103D000064E10E94333A811101C081E081A7DF9113
:103D1000CF9108958F929F92AF92BF92CF92DF92F0
:103D2000EF92FF920F931F93CF93DF93EC015C010F
:103D300086E8A80EB11CD5018C91882309F44DC0EA
:103D40008C3018F41CE0181B01C010E0FE01EA5A88
:103D5000FF4F81E080836E01BEE4CB0ED11C60E09A
:103D6000C6010E941C194E01E3E58E0E911CD40180
:103D70008C9103E0080F9DE2F92E4F2D481B410F57
:103D800023E0E22E24E560E0C6010E94511B61E0C1
:103D9000C6010E941C19F401808103E0080F4F2D19
:103DA000481B410F24E560E0C6010E94F11AFE01A4
:103DB000E95AFF4F84E080833196D4018C91181B1F
:103DC000115D1083CC57DF4F68817981C6010E9455
:103DD0001536F501808181508083DF91CF911F914D
:103DE0000F91FF90EF90DF90CF90BF90AF909F909A
:103DF0008F900895DF92EF92FF920F931F93CF93CE
:103E0000DF93EC018C8D9D8D892B09F49CC08E0174
:103E1000025B1F4F40E061E0C8010E94201985E568
:103E2000FE01EE5AFF4F9081891B359680833196B3
:103E30001082698D613009F462C028F0888D653088
:103E400008F074C06FC0CE0185960E94942281E074
:103E5000FE01EA5AFF4F808369ED72E1C8010E94BA
:103E6000BC1C1D8E1C8EFE01EC5AFF4F108238EADE
:103E7000D32E7E018AE0E80EF11CCE010E94AB1F1A
:103E80008823D9F36BE774E1C8010E9415366A8D67
:103E90007B8D4AE050E0C8010E94263766E674E157
:103EA000C8010E9415366D2D62956F7070E04AE072
:103EB00050E0C8010E940A376BE574E1C8010E9416
:103EC000153664E0C7010E947F1881113CC0DA9466
:103ED000A1F660E0CE010E94911783B7817F8460D4
:103EE00083BF83B7816083BF83B7816083BF8895B9
:103EF00083B78E7F83BF83B78E7F83BFBECFCF58FC
:103F0000DF4F488159816A817B814F705527662731
:103F10007727483051056105710510F467E009C045
:103F200068E707C0882379F06B5F03C0882359F0E6
:103F30006FE2C801DF91CF911F910F91FF90EF9039
:103F4000DF900C943A36DF91CF911F910F91FF9043
:103F5000EF90DF9008958F929F92AF92BF92EF9271
:103F6000FF920F931F93CF93DF93EC017C0100E846
:103F7000E00EF11CF70180809180A280B3800E9446
:103F80000E3495018401061B170B280B390BB90160
:103F9000A8015E011FE7A10EB11CF501808190E030
:103FA000A0E0B0E08E0105581F4F84179507A607C3
:103FB000B70750F4F80180819181A281B381892BE8
:103FC0008A2B8B2B09F040C0F80180819181A2815E
:103FD000B381892B8A2B8B2BA9F57E01F5E2EF0E9D
:103FE000F11CC7010E949122C7010E94FE22C70155
:103FF0000E94C223CE010E948A1ECE010E94FA1E98
:104000007E012EE4E20EF11CC7010E94D418FE01CD
:10401000EC5AFF4F8081811103C0C7010E94C31871
:104020000E941A34F8016083718382839383FE01B6
:10403000EB58FF4FC958DF4F28813981621B730B42
:104040007183608380E036C00E940E34F5012081C8
:10405000620F711D811D911DF70160837183828341
:104060009383FE01EF58FF4F40815181628173813C
:104070004F5F5F4F6F4F7F4F4083518362837383E6
:10408000F80110821182128213820E941A34FE01FA
:10409000E958FF4F6083718382839383CE010E942E
:1040A0009517CE010A960E944818CE0148960E94A4
:1040B000FE1781E0DF91CF911F910F91FF90EF905C
:1040C000BF90AF909F908F900895E0E8F7E725911B
:1040D000349181E02130304C09F080E00895CF9395
:1040E000DF93EC010E9465209E01275A3F4FDE01BD
:1040F000A059BF4F882309F43CC0E6E9F7E7849153
:10410000F9018083E7E9F7E7E491EC83E8E9F7E771
:10411000E491ED83E9E9F7E7859194919F838E839C
:10412000EBE9F7E78591949199878887EDE9F7E7BF
:10413000E491EBA7EEE9F7E7E491EAA7EFE9F7E707
:10414000E491EC93E0EAF7E7859194919D8F8C8F51
:10415000E2EAF7E7859194919F8F8E8FE4EAF7E783
:104160008591949199A388A3E6EAF7E785919491C4
:1041700020C08CE3F90180831C822FEF2D8380E225
:1041800093E09F838E8384ED93E09987888781E015
:104190008BA78AA72C938CEA9DE09D8F8C8F8EED48
:1041A0009DE09F8F8E8F84E79EE099A388A38CE388
:1041B0009FE09BA38AA3DF91CF910895CF92DF92D6
:1041C000EF920F93CF93DF93EC01FC01E158FF4F87
:1041D00082E38083349741E050E060E070E0408308
:1041E0005183628373833B978FEF8083CE010E945C
:1041F0006F20CE010E948D176FEFCE010E949117A4
:104200006E018AE0C80ED11CC6010E943818C60192
:104210000E944818CE0148960E94F4173EE0E32E13
:104220000FE020E14BE06DE0CE01825B9F4F0E94EA
:10423000D01CA596CE010E94A72165E0C6010E9470
:104240007F18882351F060E0CE01DF91CF910F916C
:10425000EF90DF90CF900C94122440E069E874E175
:10426000CE01DF91CF910F91EF90DF90CF900C9422
:1042700046228F929F92AF92BF92CF92DF92EF929F
:10428000FF920F931F93CF93DF93CDB7DEB7260F27
:10429000371FE216F30684F4EA0CFB1C6E157F054B
:1042A0005CF4040F151FC016D10634F4C80CD91CD9
:1042B00081E04C155D050CF080E0DF91CF911F91FE
:1042C0000F91FF90EF90DF90CF90BF90AF909F90B5
:1042D0008F900895CF93DF9350E0FA01EE0FFF1F08
:1042E000E80FF91F37852089E32FF22FE60FF11D24
:1042F000E60FF11D25913491FA01EE0FFF1FE80F33
:10430000F91F30A3278FF90165917491FC01D481C5
:10431000D69FC02D1124E40FF51FC1A3F901A5916B
:10432000B4916B2F70E0EC2FF0E0DC01A40FB51F0F
:104330006E177F0720F4F90125913491C32FCD9F8B
:10434000C02D11249296CC93DF91CF91089521E056
:10435000FC01248324E020A722ED34E1308B278761
:1043600040E060E00E946A2161E070E083E00E942A
:10437000BD34E1EBF0E08081887F81608083F89438
:1043800010928000E1E8F0E0108210928500109217
:10439000840088E191E09093890080938800808177
:1043A00088608083808181608083EFE6F0E0808197
:1043B00082608083789408950F93FC01862F642F88
:1043C000011129C08230D1F048F4882391F0813066
:1043D00011F540E0CF010F910C946A218330A9F0D0
:1043E0008430C9F48481489F602D1124658F268F05
:1043F00012C04B3008F06AE0668B0DC08481489F84
:10440000602D1124618F228F06C08481489F602D0A
:104410001124638F248F0F910895FC0121110EC088
:10442000648B8481489F402D1124458B15A214A2D2
:1044300013A281E0878B8093BA06108E0895809135
:10444000BA06882319F08091B70601C080E08093F6
:10445000B4000895FC0161110DC0178A158A14A2D9
:1044600013A2108E1092B7061092B8061092BA06D8
:104470000C941F220895CF93DF93EC01611103C0C8
:104480000E942A221982DF91CF9108950F931F93E2
:10449000CF93DF93EC018B0141110EC060E00E94CD
:1044A0003B221E870D871B8A1A8A81E0898389E057
:1044B0008E8B198E1B8E1D8EDF91CF911F910F91C8
:1044C0000895CF93DF93EC01611128C08881882380
:1044D00029F18981811122C089852F819885E22F58
:1044E000F92FE80FF11DE80FF11D859194918F3F91
:1044F0002FEF920711F4188211C09C879927880F1B
:10450000991FEA85FB85E80FF91F6591749140E0DA
:10451000CE010E94462289858F5F8987DF91CF91E6
:10452000089560E00C94612260E00C943B220F93AC
:10453000CF93DF93EC0161115DC08981882309F479
:1045400059C08D89811156C02D853E858A899B89E8
:10455000880F991F820F931FFC01859194910097FA
:10456000D1F48989882321F01B8A1A8AF90111C0A4
:104570001982888160E0882331F0CE010E94612297
:104580008A899B8925C0CE01DF91CF910F910C9430
:104590002A2285919491BC017695679576956795C9
:1045A00080FF1DC0AC01A6E056954795AA95E1F79E
:1045B000292F26952695269520514F716F7000E082
:1045C000CE010E94DC218A899B8901969B8B8A8B74
:1045D000880F991FED85FE85E80FF91FDACF492F67
:1045E0006F7320E0CE010E940D228A899B8901967B
:1045F0009B8B8A8BDF91CF910F91089560E00C9493
:104600009722CF93DF93EC016111B9C08F89882382
:1046100009F4B5C08D89811105C0CE01DF91CF911C
:104620000C942A2281508D8B8DA1811138C08BA1D1
:104630009CA101969C01220F331FEF8DF8A1E20F80
:10464000F31F25913491422F47704EA3A90163E0D7
:10465000569547956A95E1F7BA0176956795232FA8
:10466000269526952FA36F732C81629F602D1124B0
:104670006DA341704093B6069CA38BA329A130E0A3
:104680008217930760F08AA1882329F0281B31093B
:104690003CA32BA304C060E0CE010E942A228DA17E
:1046A00081508DA3288D2F5F288F4C893FA1340F17
:1046B0008C85380F3A836B8D662361F070E0822F12
:1046C000992787FD90950E94533A8C8D869F300DD7
:1046D00011243A838A8190E0CB966BE370E00E94CC
:1046E000533A8A833E893B83698D662371F077272D
:1046F00067FD7095822F992787FD90950E94533A08
:104700008A8D869F300D11243B836D8D662391F039
:10471000822F992787FD909570E00E94533ACB0134
:1047200062E070E00E94533A2E8D9B81289F900D8D
:1047300011249B838B814F3339F08A300CF089E050
:1047400087FD80E08B8301C01B82F894EA81F0E052
:10475000E956FB4EE491E093B90698A58D81989FA8
:10476000802D11249B81899F802D11249EA1899FDA
:10477000802D11248093B8068093B7067894DF913A
:10478000CF91089560E00C9401236091B8066623F0
:1047900021F18091BB068F5F8093BB069091B90693
:1047A0008917D8F08091BA0691E089278093BA06DC
:1047B0001092BB068091B606882369F0909156014D
:1047C00083E4989F802D1124895B809356010E9479
:1047D000333A9093B7060C941F2208951F920F92BC
:1047E0000FB60F9211242F933F934F935F936F93C4
:1047F0007F938F939F93AF93BF93EF93FF930E9409
:10480000C523FF91EF91BF91AF919F918F917F91C0
:104810006F915F914F913F912F910F900FBE0F902D
:104820001F901895FC01862F992787FD909566812A
:1048300070E06F5F7F4F0E94533A8583089590E048
:1048400022E0281740F0892F806A86958CBD9095CC
:1048500091709DBD08959730B0F7220F953010F4F8
:1048600031E001C032E0930FECCF8FEF8EBD0DB47D
:1048700007FEFDCF8EB508958EBD0DB407FEFDCFAA
:10488000089561E0FC0182810E947E358FEF0C94D7
:104890003C24CF93DF93EC018C810E941F2460E0C5
:1048A0008A81DF91CF910C947E35CF92DF92EF9287
:1048B000FF920F931F93CF93DF93EC018B017A014B
:1048C0000E940E346B010E9435248D838F3F49F482
:1048D0000E940E346C197D096D327140A0F381E1A4
:1048E00003C08E3F39F08FE08B83CE010E944124BC
:1048F00080E028C0E114F104E1F081E0E81AF10859
:104900008FEF8EBDF8012FEFCF01801B910B8E151D
:104910009F0538F40DB407FEFDCF8EB52EBD8193F3
:10492000F3CF0DB407FEFDCF8EB5F801EE0DFF1DE0
:1049300080831D820E9435240E943524CE010E946E
:10494000412481E0DF91CF911F910F91FF90EF9073
:10495000DF90CF9008950F931F93CF93DF93EB01D8
:104960000E940E348B010E9435248F3F49F00E9433
:104970000E34601B710B6C177D07A8F380E001C03B
:1049800081E0DF91CF911F910F910895FF920F93D6
:104990001F93CF93DF9300D000D0CDB7DEB78C014B
:1049A000F62E29833A834B835C830E94492468E571
:1049B00072E0C8010E94AB248F2D80640E943C24C9
:1049C0008C810E943C248B810E943C248A810E941D
:1049D0003C2489810E943C24F11002C085E901C079
:1049E00087E80E943C248CE0F81202C00E94352423
:1049F000F12C0E943524F801858387FF05C0FFEF65
:104A0000FF1611F0F394F5CF0F900F900F900F90C9
:104A1000DF91CF911F910F91FF900895BF92CF9298
:104A2000DF92EF92FF920F931F93CF93DF93EC01EE
:104A3000B22E1E821B82798368834A830E940E34C1
:104A40008B0161E08A810E94453561E08A810E9484
:104A50007E352A9A229A239A259A80E48C830E9492
:104A60001F242AE0F22E8FEF0E943C24FA94D9F7FB
:104A700020E030E0A90160E0CE010E94C624813030
:104A800049F00E940E34601B710B613D774080F34A
:104A900081E051C02AEA31E040E050E068E0CE0118
:104AA0000E94C624853011F481E00AC094E0F92EFA
:104AB0000E9435248D83FA94D9F78A3A59F482E01A
:104AC0008E838E81823079F4C12CD12CE12C80E44C
:104AD000F82E0CC00E940E34601B710B613D7740B4
:104AE000C8F282E028C0C12CD12C760120E030E051
:104AF000A90167E3CE010E94C624A701960169E2DD
:104B0000CE010E94C624882349F00E940E34601B07
:104B1000710B613D774050F38AE00DC08E81823089
:104B2000E9F420E030E0A9016AE3CE010E94C62446
:104B3000882339F088E08B83CE010E94412480E0F5
:104B400012C00E943524807C803C11F483E08E8367
:104B50000E9435240E9435240E943524CE010E94F3
:104B60004124BC8281E0DF91CF911F910F91FF9092
:104B7000EF90DF90CF90BF9008950F931F93CF9346
:104B8000DF93EC0189018E81833039F039E0440FE5
:104B9000551F661F771F3A95D1F79A01AB0161E166
:104BA000CE010E94C62481110AC040E052E0B80143
:104BB000CE01DF91CF911F910F910C94552484E089
:104BC0008B83CE010E94412480E0DF91CF911F9121
:104BD0000F9108950F931F93CF93DF93EC01862FCE
:104BE0008A010E943C24F80180818EBD818122E0EF
:104BF00030E00DB407FEFDCF8EBD2115F2E03F077A
:104C000039F0F801E20FF31F80812F5F3F4FF1CFA2
:104C10000DB407FEFDCF8FEF0E943C248FEF0E9462
:104C20003C240E9435248D838F71853039F083E1D7
:104C30008B83CE010E94412480E001C081E0DF919E
:104C4000CF911F910F9108950F931F93CF93DF93EF
:104C5000EC0189018E81833039F089E0440F551FC2
:104C6000661F771F8A95D1F79A01AB0168E1CE01E3
:104C70000E94C624882319F086E08B830CC0A8010B
:104C80006EEFCE010E94EA25182F882321F0CE0175
:104C90000E94412404C0CE010E94412410E0812FD3
:104CA000DF91CF911F910F910895FC01828180685F
:104CB00082839F01245F3F4F4485558566857785B4
:104CC000868197810C94D7319F92AF92BF92CF92F9
:104CD000DF92EF92FF920F931F93CF93DF93EC013C
:104CE000888185FF02C0912C5EC088899989AA8934
:104CF000BB8981159E4FAF41B105A8F7CE010E9437
:104D00005526982E882379F34C855D856E857F85A1
:104D10008E819F810E94EE306B017C018E819F818C
:104D200025E0B701A60180960E94AC305C01009797
:104D3000D1F280E092E0F5019C01119221503040C7
:104D4000E1F711E0AE81BF8112960C911297101716
:104D5000A0F4ED91FC9111970280F381E02D950173
:104D6000B701A601410F511D611D711DCD010995AE
:104D7000882309F4B8CF1F5FE5CF10E020E030E0D2
:104D800089E0000F111F221F331F8A95D1F7488930
:104D900059896A897B89400F511F621F731F488B95
:104DA000598B6A8B7B8B892DDF91CF911F910F914E
:104DB000FF90EF90DF90CF90BF90AF909F900895BD
:104DC000CF93DF93EC01262F4C895D896E897F8913
:104DD0008E819F8180960E94AC309C01009761F08B
:104DE0008C819D818F70992745E0880F991F4A9586
:104DF000E1F7820F931F02C080E090E0DF91CF9136
:104E00000895FC018081811114C080E2DF01982F98
:104E10001D929A95E9F777836683DB0115969C913D
:104E2000903119F0903229F480E4808381E082830C
:104E3000089580E008952F923F924F925F926F9273
:104E40007F928F929F92AF92BF92CF92DF92EF921A
:104E5000FF920F931F93CF93DF9300D000D0CDB775
:104E6000DEB79C838B834B017A01DC018C91882314
:104E700009F112969C9190FF1DC027C0D380D822C3
:104E8000A114B10409F09CC0D1109AC0452B462B47
:104E9000472B09F47EC0AB81BC811C964D915D917E
:104EA0006D917C911F9729813A81CF010E94063133
:104EB00087FF7EC0AB81BC8111968C911197826077
:104EC00011968C938FEF9FEFE3C083FF17C0EB81A8
:104ED000FC81808D918DA28DB38D4089518962892D
:104EE0007389841B950BA60BB70BA70160E070E0DC
:104EF000481759076A077B07D0F018C085FF17C00D
:104F0000AB81BC811696ED91FC91179786819781B4
:104F100055E0880F991F5A95E1F750962D913C91D5
:104F20005197821B930B8E159F0508F47C01870116
:104F3000EB81FC813C96FA83E983612C42E0742E7C
:104F40000115110509F468C0AB81BC8150964D91E3
:104F50005D916D917C9153975A01B1E0BB22EB8139
:104F6000FC8120810680F781E02DDB01CA0139E058
:104F7000B695A795979587953A95D1F725FF7ECF5A
:104F8000448D558D668D778D480F591F6A1F7B1F85
:104F90002BC026FD02C0EB81FC81848D958DA68DF2
:104FA000B78DEB81FC8184879587A687B78708C07A
:104FB000811106C0EB81FC818081807769F57ACF11
:104FC000AB81BC811C964D915D916D917C911F9739
:104FD00016968D919C9117970E94EE30AB01BC0103
:104FE0004D0D511D611D711DEB81FC8186819781E5
:104FF000A114B104B1F50115F2E01F0790F1DC0135
:1050000093962D903D904D905C9096974215530548
:105010006405750529F425C0C701801B910B38C0B4
:10502000DC01ED91FC910190F081E02D9401099556
:10503000882309F43FCFC12CF2E0DF2E8C0C9D1C9D
:10504000EB81FC8180899189A289B3898C0D9D1D9A
:10505000A11DB11D808B918BA28BB38B0C191D09E7
:105060006FCF93012A193B0968012017310708F413
:10507000690120E080960E94AC30009709F41ACFB5
:10508000BC016A0D7B1DA601C4010E94323BD6CF34
:105090000F900F900F900F90DF91CF911F910F9174
:1050A000FF90EF90DF90CF90BF90AF909F908F9048
:1050B0007F906F905F904F903F902F9008958F92C8
:1050C0009F92AF92BF92CF92DF92EF92FF920F9397
:1050D0001F93CF93DF931F92CDB7DEB78C01FC01F6
:1050E00080889188A288B388C484D584E684F784B4
:1050F00041E050E0BE016F5F7F4F0E941B27019788
:1051000019F4898190E002C08FEF9FEF8F3FFFEF8E
:105110009F0749F0F801808A918AA28AB38AC486DF
:10512000D586E686F7860F90DF91CF911F910F917C
:10513000FF90EF90DF90CF90BF90AF909F908F90B7
:105140000895FF920F931F93CF93DF931F92CDB7D4
:10515000DEB78C01262FFC01408951896289738951
:10516000DB01CA01E5E0B695A79597958795EA9585
:10517000D1F7F82FFF70FF2E11F0211117C041E079
:1051800050E0BE016F5F7F4FC8010E941B27813036
:1051900019F080E090E01CC0F801408951896289D3
:1051A0007389415E5F4F6F4F7F4F05C0405E5F4F19
:1051B0006F4F7F4FF801408B518B628B738BF801DF
:1051C000868197818796F0E2FF9E800D911D1124C4
:1051D0000F90DF91CF911F910F91FF9008954F9203
:1051E0005F926F927F928F929F92AF92BF92CF9277
:1051F000DF92EF92FF920F931F93CF93DF93EC0117
:105200006A017B014C845D846E847F84A881AA231B
:1052100009F48CC0411551056105710529F41C86FE
:105220001D861E861F867CC0A3FF0BC0488D598D2E
:105230006A8D7B8D4C155D056E057F0508F476C083
:1052400014C0A5FF12C0EE81FF8186819781F5E031
:10525000880F991FFA95E1F7A0E0B0E08417950751
:10526000A607B70708F462C05BC0088919892A89B4
:105270003B89EE81FF81848190E00996B901A80104
:105280004150510961097109082E04C0769567954E
:10529000579547950A94D2F746015701B1E08B1A0A
:1052A0009108A108B10804C0B694A7949794879474
:1052B0008A95D2F784169506A606B70620F0012B2C
:1052C000022B032B81F4A6FF05C0848D958DA68D3E
:1052D000B78D04C08C8D9D8DAE8DBF8D8C879D87C5
:1052E000AE87BF8704C0841A950AA60AB70A8E0142
:1052F000045F1F4F81149104A104B10489F04C850F
:105300005D856E857F8598018E819F810E94063123
:1053100091E0891A9108A108B10818165CF306C03B
:10532000C88AD98AEA8AFB8A81E005C04C865D86F4
:105330006E867F8680E0DF91CF911F910F91FF9065
:10534000EF90DF90CF90BF90AF909F908F907F9025
:105350006F905F904F9008958F929F92AF92BF92FF
:10536000FF920F931F93CF93DF93EC01F22E80E215
:10537000DE011D928A95E9F7FB01868197819F8363
:105380008E835D834C83848C958CA68CB78C8886A9
:105390009986AA86BB86FC01B7964F705527B5E063
:1053A000440F551FBA95E1F7E40FF51F338533FF1E
:1053B00003C0188280E054C0377138832385287178
:1053C00011F4386038830B832F2D227319F0288154
:1053D000217179F72F2D2F702A83DC0193964D913F
:1053E0005D916D917C9196974C8B5D8B6E8B7F8BD5
:1053F0004489558960E070E0BA0155274427028D41
:10540000138D20E030E0402B512B622B732BF4FEE8
:105410000AC04115510561057105E9F00E94793214
:10542000811119C0C6CF4C8F5D8F6E8F7F8F448DD9
:10543000558D668D778D488F598F6A8F7B8FF5FEDE
:105440000EC0488D598D6A8D7B8DCE010E94EF284C
:10545000811105C0AECF8A8180688A83F0CF81E058
:10546000DF91CF911F910F91FF90BF90AF909F90D0
:105470008F9008950F931F93CF93DF93EC01888152
:10548000882309F443C08A8187FF38C061E0CE01D8
:105490000E94E0268C01009729F48981816089832C
:1054A00080E035C0FC018081853EB9F3888183FFAF
:1054B00008C0488D598D6A8D7B8D448F558F668FBE
:1054C000778F4C8D5D8D6E8D7F8DF801538F428F60
:1054D000758B648BE091BC06F091BD06309759F056
:1054E000B8016A5E7F4FC80148960995F801808D22
:1054F000918D938B828B8A818F778A838E819F8116
:1055000080960E945930882341F201C081E0DF91EA
:10551000CF911F910F910895CF93DF93EC010E94DB
:105520003A2A1882DF91CF910895CF92DF92EF92BD
:10553000FF920F931F93CF93DF93CDB7DEB7E3971F
:105540000FB6F894DEBF0FBECDBF8C017B015BAB05
:105550004AABD22E19821A82FC018081882311F075
:1055600080E059C0FB0180818077D1F3EAA9FBA9D3
:1055700080818F32D9F4EAA9FBA980818F3221F48E
:105580003196FBABEAABF7CFF701668177818111EA
:1055900004C0C8010E9401273EC0CE0101960E94AE
:1055A00001278823E9F2CE0101967C0150E2C52E45
:1055B000AE014E5C5F4FBE016F5D7F4F8AA99BA914
:1055C0000E948C2C882361F2EAA9FBA980818823A0
:1055D000D1F021E0AE014F5D5F4FB701C8010E94DD
:1055E0000D2E882309F4BCCFF801DE0111968C2D15
:1055F00001900D928A95E1F7C8010E948C2AFE0164
:1056000031967F01D5CF2D2DAE014F5D5F4FB70194
:10561000C8010E940D2EE3960FB6F894DEBF0FBEB0
:10562000CDBFDF91CF911F910F91FF90EF90DF9051
:10563000CF9008952F923F924F925F926F927F92F8
:105640008F929F92AF92BF92CF92DF92EF92FF9292
:105650000F931F93CF93DF93EC015B014A01888185
:1056600083FF0EC08A8181FF0BC082FF0FC0488D6F
:10567000598D6A8D7B8DCE010E94EF28811106C065
:105680008981816089838FEF9FEF06C1A40160E06B
:1056900070E088899989AA89BB8980959095A095A1
:1056A000B09584179507A607B70750F364011E014C
:1056B0002CE0220E311C488959896A897B89C114E2
:1056C000D10409F4C7C08E819F812A013B0129E0E2
:1056D00076946794579447942A95D1F7DC011396F2
:1056E0001C9114217A01B1E0FB22111134C0E114A4
:1056F000F10489F54C855D856E857F8541155105E1
:105700006105710569F091010E94063187FDB8CFEE
:10571000811121C0CE010E94552681111CC0B0CF3D
:105720008C8D9D8DAE8DBF8D0097A105B10579F44F
:10573000CE010E945526882309F4A2CF8C859D8531
:10574000AE85BF858C8F9D8FAE8FBF8F04C08C8739
:105750009D87AE87BF874C855D856E857F858E81F1
:105760009F810E94EE30AB01BC01410F511D611DB4
:10577000711DEE81FF81E114F10421F4C11422E0D6
:10578000D206B8F580E092E08E199F0986018C154B
:105790009D0508F48C01E114F10479F448885988D6
:1057A0006A887B88888D998DAA8DBB8D481659068D
:1057B0006A067B0610F025E001C021E0CF0180964B
:1057C0000E94AC30009709F45BCFA801B5018E0DA3
:1057D0009F1D0E94323BE00EF11EE11482E0F806AC
:1057E00041F58E819F8180960E945930811121C0A0
:1057F00047CF83A194A1A5A1B6A184179507A607B9
:10580000B70741F410A28FEF9FEFDC0183A394A3AD
:10581000A5A3B6A38E819F81DC01ED91FC9102804E
:10582000F381E02D95010995882309F429CF00E043
:1058300012E088899989AA89BB89800F911FA11DCF
:10584000B11D888B998BAA8BBB8BA00EB11EC01A81
:10585000D10A31CF888D998DAA8DBB8D2A8184176D
:105860009507A607B70728F4488F598F6A8F7B8F53
:1058700006C08091BC069091BD06892B11F020686E
:105880002A838A8183FD02C0C40106C0CE010E9422
:105890003A2A8111F9CFF4CEDF91CF911F910F9168
:1058A000FF90EF90DF90CF90BF90AF909F908F9040
:1058B0007F906F905F904F903F902F90089565304C
:1058C00040F4FC01E60FF11DE60FF11D818192818C
:1058D00008956B3040F4FC01E60FF11DE60FF11D59
:1058E000848195810895613140F4FC01E60FF11D3A
:1058F000E60FF11D86819781089580E090E008957C
:10590000FC0190E080E080FB879587F92191820F70
:105910009F5F9B30C1F70895CF92DF92EF92FF9285
:105920000F931F93CF93DF93FB01DC0101962C9122
:105930002032D9F3B483A383ED01BE016A1B7B0B34
:105940008991811105C0CD01860F971FEC0118C008
:105950008F32C9F38C3511F480E0D0C0982F977F37
:105960009232D1F38A33C1F3982F9F7B9C33A1F3FA
:1059700092EC980F923080F380528F35F0F2ECCF9A
:105980001C2F3D2F29912032D9F32F32C9F3EA0180
:1059900018833983EC016115710561F08A918E32AB
:1059A00011F0803219F461507109F5CF6F3F710524
:1059B00009F094F67283618380E090E020E2EF01C9
:1059C000C80FD91F2E8301968B309105C1F7ED01C9
:1059D000CE018A1B9B0B29912E32D1F32032C1F3C9
:1059E00051E0009709F050E09B012150310938F453
:1059F00007E010E0C12CF12CC8E0EC2E0FC0ED0147
:105A0000C20FD31F48814E3281F7F2CFED01C80F8C
:105A1000D91F4881403231F450E00196861797072C
:105A2000ACF343C04E3221F428173907A9F704C05C
:105A30004232A1F04C3791F0C6EDC40FC63010F4DD
:105A40004D3261F4C6ECC40FC63040F0C5EAC40F55
:105A5000C33020F0CFEDC40FCE3530F0821793075E
:105A600009F150E04FE503C082179307D9F0011701
:105A7000D0F1CFE9C40FCA3118F44052FE2805C056
:105A8000CFEBC40FCA3108F4CE28DD24D394D10E55
:105A9000EF01C10FD11D4E8346E04D1508F0D582B0
:105AA0001D2DBBCF0A30C9F450E08681803209F445
:105AB00053CF552339F0CF2011F082E001C08F2D54
:105AC000808309C081E080838581E80FF11D8EE726
:105AD000868381E3878381E011C0C9010AE018E071
