:100000000C9430040C9458040C9458040C94580428
:100010000C9458040C9458040C9458040C945804F0
:100020000C9458040C9458040C9458040C94AD246B
:100030000C9458040C9458040C9458040C945804D0
:100040000C940A250C9458040C9423270C945527DF
:100050000C9458040C9458040C9458040C945804B0
:100060000C9458040C94580453776F726473206F87
:1000700066207468652053656120576F6C766573E0
:10008000200A1D204C6F6164696E670A0A50726510
:100090007061726520746F2046494748540A2044B5
:1000A0006F6E2774207475726E204F464600486547
:1000B00020666967687420666F72203A200A2020E3
:1000C000202D7361766520776F726C640A20202082
:1000D0002D61207769736B657920626F74746C652C
:1000E000006F662054696E74696E004F6C64206600
:1000F0007269656E6400486164646F632C004552E8
:10010000524F52205344004552524F522053440004
:10011000626567696E206572726F7200502300001D
:1001200000000000000000000000000F00000000C0
:1001300000000000000F0000000000000000000CA4
:1001400000000C0000000000000C00000C0000008B
:100150000000003F0000F00000000000003F000031
:10016000F00000000000003F0003C000000000009D
:10017000003F0003C00000000000000C03F3CF00AC
:10018000F0000000000C03F3CF00F0000000000CB2
:100190000CFC3FC3C0000000000C0CFC3FC3C000BF
:1001A00000000FFFFC0FCCF3000000000FFFFC0F5E
:1001B000CCF30000000003333C03FFF0F00000002C
:1001C00003333CF3FFF0F000000003FFF1F0FFF316
:1001D000FC00000003FFFF800003FC00000000FFA4
:1001E000DF3FFFCFCC00000000FFC03FFFC1CC00CD
:1001F000FFC0F3FC0FC000FC0FC0FFC0F3FC0FC03A
:1002000000FC0FC0C0333303303F3F033030C033F6
:100210003303303F3F033030F333C3333333333FA3
:1002200033C0F333C3333333333F33C0303333035B
:100230003033330C3300303333033033330C33007B
:1002400033C3333CF333333FF30033C3333CF33333
:10025000333FF300330333333333330303003303C8
:1002600033333333330303003F03F3F0FCC0C0FCEC
:10027000FC003F03F3F0FCC0C0FCFC00201C0001AC
:10028000E00000061000000C4800003CE80000FC04
:10029000EC00011042000110020001FFFC0000FE12
:1002A000380603FDBC0501E4020507E44209383EB7
:1002B0007C09460EFC1161C7CE228187FE42FB03FA
:1002C000FE848D01FF8895FE3F7079062F2001FF87
:1002D000FE2003FFF44003E1E7800442100007C35F
:1002E00010000501E0000A01F0000A01B8005830D2
:1002F000FFFFFFFFFFFFFFFFFC0000891E7C18824D
:100300006FE18FC400008B9E8219017031F02400D0
:1003100000BB9FF11941699BF3BC0000C106091B9A
:10032000F9E99FFBBC0000C007EA19326439E49484
:100330000000BFFE3F1A0271FFE40C00009C7F7FAB
:100340001A207E7FB43C0000BDBEF899C1F1BFAF5A
:10035000140000C027C29939EAB3C78C0000C22636
:100360005F9A79F02B878C0000BE7E41FC03F82356
:10037000830C0000BF77403C03767FE0F40000F37D
:10038000E7D1DC046877E0440000FFE6CF1A0C6C8C
:10039000B594E40000FFFFFFFFFFFFFFFFFC00003C
:1003A000FFFFFFFFFFFFFFFFFFFFF08FC63058602A
:1003B000FFFF83C6001099A640F89C67F184663F52
:1003C000D09826805898EF6D85767FD0BB7680F8E0
:1003D000E0F20B8BAEE0D0D817005BF076DB89261D
:1003E000E0D0D837FFFC0F7297BFFE7190E20F5D2F
:1003F0001800ECDDC62E3190E1FF5518007C058415
:10040000D61310E007A2382AFE0984D6071080060A
:10041000C1F8FFFFFD82160610810E801BFF7F0DC5
:100420008736001088F65E7FF07C9D9CE60610867D
:100430000E719FFC7963A186061081F6A198AA7CB3
:10044000E3DF060010FFFFFFFFFFFFFDFFFFFFF0F0
:10045000FFFFFFFFFFFFFFFFFC000081260E1FF0E4
:10046000E7F18FC40000863E11180EE809903400B1
:10047000008A06609801F405B1DC0000B8F66A99BC
:10048000F8FFC59B9C0000E52EE4DF866B45A01CB1
:100490000000E52F0A3F71799DB61C0000C50FFFD3
:1004A000FE6AE025933C0000BFF65D9E33FC059795
:1004B0003C0000E00E5D9F04F39D887C0000DB673C
:1004C000429FC1F1CD8F9C0000DFF6B99ED5EBCFE6
:1004D00098140000ADB7F71B3FEC19B23C00009038
:1004E00007F19981EB01DFFC00008FFFBFD9FFF816
:1004F0000F9FFC0000FFFFFFFFFFFFFFFFFC00005E
:100500006572726F723A20002C3058005344206597
:1005100072726F72436F64653A2030580003053F72
:10052000213F1208120A100A0E1C0E0C1E0C141A7F
:1005300014161F161E131E1E1B1E1E1F1E3F213FBC
:100540003A2F3A173D173F213F181F02040A041F94
:100550000E04040E1F0A1F0A0E0E1F04110E2E2574
:100560002E2F2A2E262929021F02081F08150E04E5
:10057000040E150E15151B151B040604040C0400AF
:1005800000000017000300031F0A1F16371A190482
:10059000130A153A000300000E11110E000A040A96
:1005A000040E040030000404040010001804031FAB
:1005B000111F121F101D151711151F07041F1715E6
:1005C0001D1F151D01011F1F151F17151F000A00F4
:1005D000003200040A110A0A0A110A040115020E67
:1005E00011171E051E1F150A0E110A1F110E1F15C9
:1005F000111F05010E111D1F041F111F1108100FDF
:100600001F041B1F10101F061F1E040F0E110E1FAC
:1006100009060E112E1F051A121509011F011F10C0
:100620001F0F180F1F0C1F1B041B031C031915138E
:10063000001F11030418111F0002010220202000D6
:1006400001020C121E1F120C0C12120C121F0C1A9B
:1006500014041E05242A1E1F021C141D1020201D18
:100660001F0814111F101E041E1E021C0C120C3E2B
:100670000A040C123E1E040214160A020F120E1077
:100680001E0E100E1E081E120C1226281E322A26BE
:10069000041E21001F00211E040102013F213F0A08
:1006A0004E6F2053442063617264206F720A6E6F34
:1006B000204C4F414445522E4845580A0A153A45A8
:1006C000786974001D20466C617368696E670A2042
:1006D000206C6F616465722E2E2E0A0A444F4E27DD
:1006E00054205455524E204F464621000A0A153ACE
:1006F00049676E6F7265006D560A0A504C4541534A
:1007000045205455524E204F464620004C4F57200E
:1007100042415454455259212000175344001613A6
:100720007800161314001510200015201000005436
:100730000A03E181867F3E186D830F0F0E018386C9
:100740006033186DC3198F1803C38E6033186DE3BF
:1007500030CF1803C39E603630CDE360CF3006C77C
:100760009E7E3E30CDB360CF300CC6F6603330D9BC
:10077000B660CF33CFCCF66061B0DB1E60CF30D82F
:100780006CE6C061B0DB1E618F19986CC6C063B1A6
:100790009B0E330F0FB078C6FF7E1F1B061E0F0582
:1007A00000893008023802497868140000F6E8DB56
:1007B000CFC3B8AEA49B928A827B746E68625C578A
:1007C000524E4945413E3A3734312E2C29272523B4
:1007D000211F1D1C1A1917161514131211100F0EB4
:1007E0000D0C0B0A0908070645006801000005000A
:1007F000380168010000FE07FA070101FF0301014B
:10080000F7030000000800020100000304070000D5
:1008100000000000000001020408102040800102D6
:100820000408102001020408102004040404040435
:100830000404020202020202030303030303000092
:1008400000002300260029000000000025002800E9
:100850002B0000000000240027002A00AC0685279A
:1008600011241FBECFEFD8E0DEBFCDBF11E0A0E066
:10087000B1E0E6EAF8E502C005900D92A437B107B1
:10088000D9F727E0A4E7B1E001C01D92A932B20771
:10089000E1F718E0C0E6D8E004C02297FE010E940C
:1008A000282CCC35D107C9F70E94C9270C94512CAC
:1008B0000C940000FC01848583FF0DC084A195A1E8
:1008C000A6A1B7A1448D558D668D778D841B950BA0
:1008D000A60BB70B03C080E090E0DC01811520E897
:1008E0009207A105B10520F08FEF9FE7A0E0B0E0EF
:1008F00008950C960C94320E0C960C94520D0C9696
:100900000C94770BCF93DF931F92CDB7DEB741E006
:1009100050E0BE016F5F7F4F0C960E94330A019733
:1009200019F4898190E002C08FEF9FEF0F90DF9163
:10093000CF910895895B9D4F0C94D508895B9D4F9D
:100940000C943C09CF93DF931F92CDB7DEB7698338
:1009500041E050E0BE016F5F7F4F0C960E94320E67
:100960000F90DF91CF91089522E04AE067E774E0AD
:1009700080E794E00E942608882339F180E594E01E
:100980000E94A40D61E089E292E00E94DE158823B6
:1009900049F069E272E080E594E00E94190A882338
:1009A000A1F008C060E089E292E00E94DE158111AA
:1009B000F0CF0BC080915004807739F080E594E04F
:1009C00090937B0480937A04089560E171E08CE851
:1009D00096E00E9440284AE067E071E086E791E0F7
:1009E0000C94E91D0F932EEE32E040E060E084ECC1
:1009F00091E00E94011B6091E7017091E8018091F4
:100A0000E9019091EA012AE030E040E050E00E94E4
:100A1000DA2B653071058105910550F162E084ECB7
:100A200091E00E94E318209174012F3029F400E135
:100A30002EE040E166E412C0822F65E00E94A42B04
:100A4000482F4295407F3EE02302C001112466E416
:100A500070E00E94C62B00E12EE0682F84EC91E04C
:100A60000E94311961E084EC91E00F910C94E3183D
:100A70000F9108951F93CF93DF93CDB7DEB7AC9757
:100A80000FB6F894DEBF0FBECDBF10917401117880
:100A900017FF03C011501E6F1F5F1D861E861C822C
:100AA0001B8288EE93E0A0E0B0E08D839E83AF834D
:100AB000B88781E491E09A83898323E54CE051E093
:100AC00060E574E0CE010D960E94AD0D80E2FE015E
:100AD0003D96A9E0B2E001900D928A95E1F78B81F5
:100AE0009C81909300028093FF018D819E81AF8154
:100AF000B8858093010290930202A0930302B09301
:100B0000040289859A85AB85BC8580930502909304
:100B10000602A0930702B093080280910902811196
:100B20000FC046E151E06CE876E089E292E00E9475
:100B300034074AE06EEF70E086E791E00E94E91D1D
:100B400061E38DEF91E00E9425284AE050E0612F9B
:100B50008DEF91E00E94232989E092E00E94A40D8C
:100B6000AC960FB6F894DEBF0FBECDBFDF91CF912C
:100B70001F91089564E080E891E00E9404188823A2
:100B800029F00E943A0581E08093750162E080E8D7
:100B900091E00E940418882349F0809174018F5FCE
:100BA00080937401803114F01092740160E080E849
:100BB00091E00E940418882351F0809174018150C3
:100BC0008093740187FF03C08FE08093740161E01C
:100BD00080E891E00E9404188823B9F080917401A4
:100BE0009BEF980F97FD03C09093740103C0865F3D
:100BF0008093740160917401772767FD70954AE0D6
:100C000050E08CE896E00E94072963E080E891E0DC
:100C10000E940418882381F0809174018A3019F4AD
:100C200010927401089595E0980F9093740190319B
:100C30001CF08A50809374010895CF9380917401C1
:100C4000811135C02CE732E040E060E084EC91E0B7
:100C50000E94011B1092CE01C1E2C093CD0166EF4C
:100C600070E084EC91E00E94002886E08093CE0141
:100C7000C093CD016BEE70E084EC91E00E940028FF
:100C80008CE08093CE01C093CD0161EE70E084ECE6
:100C900091E00E9400288EE18093CE011092CD0158
:100CA0006EEA70E084EC91E0CF910C940028CF9133
:100CB000089584EC91E00E948A1868E670E084EC64
:100CC00091E00E94002884EC91E00E949B1888E348
:100CD00091E0EEEFFFE3099464E080E891E00E9488
:100CE000041881110C94590665E080E891E00E9497
:100CF000041881111092750108956CE171E086E786
:100D000091E00C94502186E791E00E94CE210E9450
:100D1000B4040E947D0610927401089586E791E064
:100D20000E94131F8823B9F066E080E891E00E94DA
:100D3000041881110E947D0680917501882319F0A5
:100D4000813029F008950E94BA050C94F2040E94A3
:100D50006C060C941D06089510922E0210925004F9
:100D60001092510489E1809373041092760481E516
:100D700091E090932A028093290210920902109226
:100D80000A02109200021092FF0188EE93E0A0E0A8
:100D9000B0E08093010290930202A0930302B0930B
:100DA000040281E491E09093FE018093FD01109292
:100DB000C7011092C60189E591E09093C501809327
:100DC000C4010895EF92FF920F931F93CF93DF9387
:100DD0007C01EB018C01065B1D4FF80180818823AB
:100DE00001F16CE075E0CE010E94002840E150E086
:100DF000F8016081CE010E941C2968E075E0CE01F7
:100E00000E940028F701E45BFD4F40E150E0608163
:100E1000CE01DF91CF911F910F91FF90EF900C9435
:100E20002329DF91CF911F910F91FF90EF900895AB
:100E3000EF92FF920F931F93CF93DF938C01EB01FF
:100E40007A0160E075E0CE010E940028B701CE0172
:100E50000E945228BE01C801DF91CF911F910F91CE
:100E6000FF90EF900C94E2060E941807FFCF90E0ED
:100E700022E0281740F0892F806A86958CBD9095D6
:100E800091709DBD08959730B0F7220F953010F402
:100E900031E001C032E0930FECCF8FEF8EBD0DB487
:100EA00007FEFDCF8EB508958EBD0DB407FEFDCFB4
:100EB000089561E0FC0182810E94C4268FEF0C94AA
:100EC0005407CF93DF93EC018C810E94370760E0D9
:100ED0008A81DF91CF910C94C426CF92DF92EF925A
:100EE000FF920F931F93CF93DF93EC018B017A0155
:100EF0000E9454256B010E944D078D838F3F49F45A
:100F00000E9454256C197D096D327140A0F381E176
:100F100003C08E3F39F08FE08B83CE010E945907CA
:100F200080E028C0E114F104E1F081E0E81AF10862
:100F30008FEF8EBDF8012FEFCF01801B910B8E1527
:100F40009F0538F40DB407FEFDCF8EB52EBD8193FD
:100F5000F3CF0DB407FEFDCF8EB5F801EE0DFF1DEA
:100F600080831D820E944D070E944D07CE010E9482
:100F7000590781E0DF91CF911F910F91FF90EF9082
:100F8000DF90CF9008950F931F93CF93DF93EB01E2
:100F90000E9454258B010E944D078F3F49F00E940B
:100FA0005425601B710B6C177D07A8F380E001C00E
:100FB00081E0DF91CF911F910F910895FF920F93E0
:100FC0001F93CF93DF9300D000D0CDB7DEB78C0155
:100FD000F62E29833A834B835C830E94610768E580
:100FE00072E0C8010E94C3078F2D80640E945407DD
:100FF0008C810E9454078B810E9454078A810E9431
:10100000540789810E945407F11002C085E901C08C
:1010100087E80E9454078CE0F81202C00E944D0736
:10102000F12C0E944D07F801858387FF05C0FFEF73
:10103000FF1611F0F394F5CF0F900F900F900F90D3
:10104000DF91CF911F910F91FF900895BF92CF92A2
:10105000DF92EF92FF920F931F93CF93DF93EC01F8
:10106000B22E1E821B82798368834A830E94542594
:101070008B0161E08A810E948B2661E08A810E9457
:10108000C4262A9A229A239A259A80E48C830E9465
:1010900037072AE0F22E8FEF0E945407FA94D9F70F
:1010A00020E030E0A90160E0CE010E94DE0781303F
:1010B00049F00E945425601B710B613D774080F31D
:1010C00081E051C02AEA31E040E050E068E0CE0122
:1010D0000E94DE07853011F481E00AC094E0F92E09
:1010E0000E944D078D83FA94D9F78A3A59F482E029
:1010F0008E838E81823079F4C12CD12CE12C80E456
:10110000F82E0CC00E945425601B710B613D774086
:10111000C8F282E028C0C12CD12C760120E030E05A
:10112000A90167E3CE010E94DE07A701960169E2EB
:10113000CE010E94DE07882349F00E945425601BDF
:10114000710B613D774050F38AE00DC08E81823093
:10115000E9F420E030E0A9016AE3CE010E94DE0755
:10116000882339F088E08B83CE010E94590780E004
:1011700012C00E944D07807C803C11F483E08E8376
:101180000E944D070E944D070E944D07CE010E940C
:101190005907BC8281E0DF91CF911F910F91FF90A1
:1011A000EF90DF90CF90BF9008950F931F93CF9350
:1011B000DF93EC0189018E81833039F039E0440FEF
:1011C000551F661F771F3A95D1F79A01AB0161E170
:1011D000CE010E94DE0781110AC040E052E0B80152
:1011E000CE01DF91CF911F910F910C946D0784E098
:1011F0008B83CE010E94590780E0DF91CF911F9130
:101200000F9108950F931F93CF93DF93EC01862FD7
:101210008A010E945407F80180818EBD818122E0FD
:1012200030E00DB407FEFDCF8EBD2115F2E03F0783
:1012300039F0F801E20FF31F80812F5F3F4FF1CFAC
:101240000DB407FEFDCF8FEF0E9454078FEF0E9471
:1012500054070E944D078D838F71853039F083E1EB
:101260008B83CE010E94590780E001C081E0DF91AD
:10127000CF911F910F9108950F931F93CF93DF93F9
:10128000EC0189018E81833039F089E0440F551FCC
:10129000661F771F8A95D1F79A01AB0168E1CE01ED
:1012A0000E94DE07882319F086E08B830CC0A8011A
:1012B0006EEFCE010E940209182F882321F0CE0183
:1012C0000E94590704C0CE010E94590710E0812FE7
:1012D000DF91CF911F910F910895FC018281806869
:1012E00082839F01245F3F4F4485558566857785BE
:1012F000868197810C94EF149F92AF92BF92CF9208
:10130000DF92EF92FF920F931F93CF93DF93EC0145
:10131000888185FF02C0912C5EC088899989AA893D
:10132000BB8981159E4FAF41B105A8F7CE010E9440
:101330006D09982E882379F34C855D856E857F85B0
:101340008E819F810E9406146B017C018E819F819A
:1013500025E0B701A60180960E94C4135C010097A6
:10136000D1F280E092E0F5019C01119221503040D1
:10137000E1F711E0AE81BF8112960C911297101720
:10138000A0F4ED91FC9111970280F381E02D95017D
:10139000B701A601410F511D611D711DCD010995B8
:1013A000882309F4B8CF1F5FE5CF10E020E030E0DC
:1013B00089E0000F111F221F331F8A95D1F748893A
:1013C00059896A897B89400F511F621F731F488B9F
:1013D000598B6A8B7B8B892DDF91CF911F910F9158
:1013E000FF90EF90DF90CF90BF90AF909F900895C7
:1013F000CF93DF93EC01262F4C895D896E897F891D
:101400008E819F8180960E94C4139C01009761F099
:101410008C819D818F70992745E0880F991F4A958F
:10142000E1F7820F931F02C080E090E0DF91CF913F
:101430000895FC018081811114C080E2DF01982FA2
:101440001D929A95E9F777836683DB0115969C9147
:10145000903119F0903229F480E4808381E0828316
:10146000089580E008952F923F924F925F926F927D
:101470007F928F929F92AF92BF92CF92DF92EF9224
:10148000FF920F931F93CF93DF9300D000D0CDB77F
:10149000DEB79C838B834B017A01DC018C9188231E
:1014A00009F112969C9190FF1DC027C0D380D822CD
:1014B000A114B10409F09CC0D1109AC0452B462B51
:1014C000472B09F47EC0AB81BC811C964D915D9188
:1014D0006D917C911F9729813A81CF010E941E1442
:1014E00087FF7EC0AB81BC8111968C911197826081
:1014F00011968C938FEF9FEFE3C083FF17C0EB81B2
:10150000FC81808D918DA28DB38D40895189628936
:101510007389841B950BA60BB70BA70160E070E0E5
:10152000481759076A077B07D0F018C085FF17C016
:10153000AB81BC811696ED91FC91179786819781BE
:1015400055E0880F991F5A95E1F750962D913C91DF
:101550005197821B930B8E159F0508F47C01870120
:10156000EB81FC813C96FA83E983612C42E0742E86
:101570000115110509F468C0AB81BC8150964D91ED
:101580005D916D917C9153975A01B1E0BB22EB8143
:10159000FC8120810680F781E02DDB01CA0139E062
:1015A000B695A795979587953A95D1F725FF7ECF64
:1015B000448D558D668D778D480F591F6A1F7B1F8F
:1015C0002BC026FD02C0EB81FC81848D958DA68DFC
:1015D000B78DEB81FC8184879587A687B78708C084
:1015E000811106C0EB81FC818081807769F57ACF1B
:1015F000AB81BC811C964D915D916D917C911F9743
:1016000016968D919C9117970E940614AB01BC0110
:101610004D0D511D611D711DEB81FC8186819781EE
:10162000A114B104B1F50115F2E01F0790F1DC013E
:1016300093962D903D904D905C9096974215530552
:101640006405750529F425C0C701801B910B38C0BE
:10165000DC01ED91FC910190F081E02D9401099560
:10166000882309F43FCFC12CF2E0DF2E8C0C9D1CA7
:10167000EB81FC8180899189A289B3898C0D9D1DA4
:10168000A11DB11D808B918BA28BB38B0C191D09F1
:101690006FCF93012A193B0968012017310708F41D
:1016A000690120E080960E94C413009709F41ACFC4
:1016B000BC016A0D7B1DA601C4010E94482CD6CF37
:1016C0000F900F900F900F90DF91CF911F910F917E
:1016D000FF90EF90DF90CF90BF90AF909F908F9052
:1016E0007F906F905F904F903F902F9008958F92D2
:1016F0009F92AF92BF92CF92DF92EF92FF920F93A1
:101700001F93CF93DF931F92CDB7DEB78C01FC01FF
:1017100080889188A288B388C484D584E684F784BD
:1017200041E050E0BE016F5F7F4F0E94330A019796
:1017300019F4898190E002C08FEF9FEF8F3FFFEF98
:101740009F0749F0F801808A918AA28AB38AC486E9
:10175000D586E686F7860F90DF91CF911F910F9186
:10176000FF90EF90DF90CF90BF90AF909F908F90C1
:101770000895FF920F931F93CF93DF931F92CDB7DE
:10178000DEB78C01262FFC0140895189628973895B
:10179000DB01CA01E5E0B695A79597958795EA958F
:1017A000D1F7F82FFF70FF2E11F0211117C041E083
:1017B00050E0BE016F5F7F4FC8010E94330A813045
:1017C00019F080E090E01CC0F801408951896289DD
:1017D0007389415E5F4F6F4F7F4F05C0405E5F4F23
:1017E0006F4F7F4FF801408B518B628B738BF801E9
:1017F000868197818796F0E2FF9E800D911D1124CE
:101800000F90DF91CF911F910F91FF9008954F920C
:101810005F926F927F928F929F92AF92BF92CF9280
:10182000DF92EF92FF920F931F93CF93DF93EC0120
:101830006A017B014C845D846E847F84A881AA2325
:1018400009F48CC0411551056105710529F41C8608
:101850001D861E861F867CC0A3FF0BC0488D598D38
:101860006A8D7B8D4C155D056E057F0508F476C08D
:1018700014C0A5FF12C0EE81FF8186819781F5E03B
:10188000880F991FFA95E1F7A0E0B0E0841795075B
:10189000A607B70708F462C05BC0088919892A89BE
:1018A0003B89EE81FF81848190E00996B901A8010E
:1018B0004150510961097109082E04C07695679558
:1018C000579547950A94D2F746015701B1E08B1A14
:1018D0009108A108B10804C0B694A794979487947E
:1018E0008A95D2F784169506A606B70620F0012B36
:1018F000022B032B81F4A6FF05C0848D958DA68D48
:10190000B78D04C08C8D9D8DAE8DBF8D8C879D87CE
:10191000AE87BF8704C0841A950AA60AB70A8E014B
:10192000045F1F4F81149104A104B10489F04C8518
:101930005D856E857F8598018E819F810E941E1432
:1019400091E0891A9108A108B10818165CF306C045
:10195000C88AD98AEA8AFB8A81E005C04C865D86FE
:101960006E867F8680E0DF91CF911F910F91FF906F
:10197000EF90DF90CF90BF90AF909F908F907F902F
:101980006F905F904F9008958F929F92AF92BF9209
:10199000FF920F931F93CF93DF93EC01F22E80E21F
:1019A000DE011D928A95E9F7FB01868197819F836D
:1019B0008E835D834C83848C958CA68CB78C8886B3
:1019C0009986AA86BB86FC01B7964F705527B5E06D
:1019D000440F551FBA95E1F7E40FF51F338533FF28
:1019E00003C0188280E054C0377138832385287182
:1019F00011F4386038830B832F2D227319F028815E
:101A0000217179F72F2D2F702A83DC0193964D9148
:101A10005D916D917C9196974C8B5D8B6E8B7F8BDE
:101A20004489558960E070E0BA0155274427028D4A
:101A3000138D20E030E0402B512B622B732BF4FEF2
:101A40000AC04115510561057105E9F00E94911523
:101A5000811119C0C6CF4C8F5D8F6E8F7F8F448DE3
:101A6000558D668D778D488F598F6A8F7B8FF5FEE8
:101A70000EC0488D598D6A8D7B8DCE010E94070C5A
:101A8000811105C0AECF8A8180688A83F0CF81E062
:101A9000DF91CF911F910F91FF90BF90AF909F90DA
:101AA0008F9008950F931F93CF93DF93EC0188815C
:101AB000882309F443C08A8187FF38C061E0CE01E2
:101AC0000E94F8098C01009729F48981816089833B
:101AD00080E035C0FC018081853EB9F3888183FFB9
:101AE00008C0488D598D6A8D7B8D448F558F668FC8
:101AF000778F4C8D5D8D6E8D7F8DF801538F428F6A
:101B0000758B648BE0917804F0917904309759F0EB
:101B1000B8016A5E7F4FC80148960995F801808D2B
:101B2000918D938B828B8A818F778A838E819F811F
:101B300080960E947113882341F201C081E0DF91F9
:101B4000CF911F910F910895CF93DF93EC010E94E5
:101B5000520D1882DF91CF910895CF92DF92EF92CC
:101B6000FF920F931F93CF93DF93CDB7DEB7E39729
:101B70000FB6F894DEBF0FBECDBF8C017B015BAB0F
:101B80004AABD22E19821A82FC018081882311F07F
:101B900080E059C0FB0180818077D1F3EAA9FBA9DD
:101BA00080818F32D9F4EAA9FBA980818F3221F498
:101BB0003196FBABEAABF7CFF701668177818111F4
:101BC00004C0C8010E94190A3EC0CE0101960E94BD
:101BD000190A8823E9F2CE0101967C0150E2C52E54
:101BE000AE014E5C5F4FBE016F5D7F4F8AA99BA91E
:101BF0000E94A40F882361F2EAA9FBA980818823AF
:101C0000D1F021E0AE014F5D5F4FB701C8010E94E6
:101C10002511882309F4BCCFF801DE0111968C2D23
:101C200001900D928A95E1F7C8010E94A40DFE0172
:101C300031967F01D5CF2D2DAE014F5D5F4FB7019E
:101C4000C8010E942511E3960FB6F894DEBF0FBEBF
:101C5000CDBFDF91CF911F910F91FF90EF90DF905B
:101C6000CF9008952F923F924F925F926F927F9202
:101C70008F929F92AF92BF92CF92DF92EF92FF929C
:101C80000F931F93CF93DF93EC015B014A0188818F
:101C900083FF0EC08A8181FF0BC082FF0FC0488D79
:101CA000598D6A8D7B8DCE010E94070C811106C073
:101CB0008981816089838FEF9FEF06C1A40160E075
:101CC00070E088899989AA89BB8980959095A095AB
:101CD000B09584179507A607B70750F364011E0156
:101CE0002CE0220E311C488959896A897B89C114EC
:101CF000D10409F4C7C08E819F812A013B0129E0EC
:101D000076946794579447942A95D1F7DC011396FB
:101D10001C9114217A01B1E0FB22111134C0E114AD
:101D2000F10489F54C855D856E857F8541155105EA
:101D30006105710569F091010E941E1487FDB8CFFD
:101D4000811121C0CE010E946D0981111CC0B0CF4C
:101D50008C8D9D8DAE8DBF8D0097A105B10579F459
:101D6000CE010E946D09882309F4A2CF8C859D8540
:101D7000AE85BF858C8F9D8FAE8FBF8F04C08C8743
:101D80009D87AE87BF874C855D856E857F858E81FB
:101D90009F810E940614AB01BC01410F511D611DC2
:101DA000711DEE81FF81E114F10421F4C11422E0E0
:101DB000D206B8F580E092E08E199F0986018C1555
:101DC0009D0508F48C01E114F10479F448885988E0
:101DD0006A887B88888D998DAA8DBB8D4816590697
:101DE0006A067B0610F025E001C021E0CF01809655
:101DF0000E94C413009709F45BCFA801B5018E0DB2
:101E00009F1D0E94482CE00EF11EE11482E0F806AE
:101E100041F58E819F8180960E947113811121C0AE
:101E200047CF83A194A1A5A1B6A184179507A607C2
:101E3000B70741F410A28FEF9FEFDC0183A394A3B7
:101E4000A5A3B6A38E819F81DC01ED91FC91028058
:101E5000F381E02D95010995882309F429CF00E04D
:101E600012E088899989AA89BB89800F911FA11DD9
:101E7000B11D888B998BAA8BBB8BA00EB11EC01A8B
:101E8000D10A31CF888D998DAA8DBB8D2A81841777
:101E90009507A607B70728F4488F598F6A8F7B8F5D
:101EA00006C08091780490917904892B11F0206804
:101EB0002A838A8183FD02C0C40106C0CE010E942C
:101EC000520D8111F9CFF4CEDF91CF911F910F9177
:101ED000FF90EF90DF90CF90BF90AF909F908F904A
:101EE0007F906F905F904F903F902F900895653056
:101EF00040F4FC01E60FF11DE60FF11D8181928196
:101F000008956B3040F4FC01E60FF11DE60FF11D62
:101F1000848195810895613140F4FC01E60FF11D43
:101F2000E60FF11D86819781089580E090E0089585
:101F3000FC0190E080E080FB879587F92191820F7A
:101F40009F5F9B30C1F70895CF92DF92EF92FF928F
:101F50000F931F93CF93DF93FB01DC0101962C912C
:101F60002032D9F3B483A383ED01BE016A1B7B0B3E
:101F70008991811105C0CD01860F971FEC0118C012
:101F80008F32C9F38C3511F480E0D0C0982F977F41
:101F90009232D1F38A33C1F3982F9F7B9C33A1F304
:101FA00092EC980F923080F380528F35F0F2ECCFA4
:101FB0001C2F3D2F29912032D9F32F32C9F3EA018A
:101FC00018833983EC016115710561F08A918E32B5
:101FD00011F0803219F461507109F5CF6F3F71052E
:101FE00009F094F67283618380E090E020E2EF01D3
:101FF000C80FD91F2E8301968B309105C1F7ED01D3
:10200000CE018A1B9B0B29912E32D1F32032C1F3D2
:1020100051E0009709F050E09B012150310938F45C
:1020200007E010E0C12CF12CC8E0EC2E0FC0ED0150
:10203000C20FD31F48814E3281F7F2CFED01C80F96
:10204000D91F4881403231F450E001968617970736
:10205000ACF343C04E3221F428173907A9F704C066
:102060004232A1F04C3791F0C6EDC40FC63010F4E7
:102070004D3261F4C6ECC40FC63040F0C5EAC40F5F
:10208000C33020F0CFEDC40FCE3530F08217930768
:1020900009F150E04FE503C082179307D9F001170B
:1020A000D0F1CFE9C40FCA3118F44052FE2805C060
:1020B000CFEBC40FCA3108F4CE28DD24D394D10E5F
:1020C000EF01C10FD11D4E8346E04D1508F0D582BA
:1020D0001D2DBBCF0A30C9F450E08681803209F44F
:1020E00053CF552339F0CF2011F082E001C08F2D5E
:1020F000808309C081E080838581E80FF11D8EE730
:10210000868381E3878381E011C0C9010AE018E07A
:1021100040E1E42E9ACF0A30F9F228173907E4F2A9
:10212000C9010AE018E050E1E52E8ECFDF91CF9192
:102130001F910F91FF90EF90DF90CF900895AF9295
:10214000BF92CF92DF92EF92FF920F931F93CF93A4
:10215000DF937C01EB01AD8002E010E07EE7B72E5B
:102160006E0186E0C80ED11C89819A819801280FE2
:10217000391FEB81FC81AF01480F591FE417F507A8
:1021800079F0C90165E0880F991F6A95E1F7820F20
:10219000931F2191332727FD309528273927EECF2C
:1021A000E3E0EA1510F453E0A52E84E08A0D922FA7
:1021B0009F70E82FF0E09A3010F4905D01C0995CB8
:1021C000EC0FFD1F968344E0369527954A95E1F77D
:1021D0008150A81660F3FE01EA0DF11DB68240E0C1
:1021E00050E0BA01C7010E94070C61E0C7010E94DC
:1021F000B90BBC01009731F481E0F701918199237B
:10220000C9F017C0FC018081882359F0838583FDC4
:10221000ECCF4BE050E0C6010E943B2C892B29F704
:1022200002C081E007C00F5F1F4F0436110509F09F
:102230009BCF80E0DF91CF911F910F91FF90EF90A6
:10224000DF90CF90BF90AF9008952F923F924F9222
:102250005F926F927F928F929F92AF92BF92CF9236
:10226000DF92EF92FF920F931F93CF93DF93CDB73F
:10227000DEB72B970FB6F894DEBF0FBECDBF3C0183
:102280007B876A877A012A83DA0111968D909C9068
:102290001297FB018081807711F480E0F3C1D301B4
:1022A0008C918111FACFFA018081837009F4E1C128
:1022B000C4010C966DE070E00E94B22B552453943B
:1022C000560E40E050E0BA018A859B850E94070CBB
:1022D0001C821D821982412C10E000E01B82170134
:1022E000B6E02B0E311CAA85BB8550962D913D91F1
:1022F0004D915C91539765E0569547953795279595
:102300006A95D1F7590161E0CD0128873E8349875D
:102310005F830E94B90B6C0128853E81009739F4D8
:10232000EA85FB858181882309F488C0B6CFDC016A
:102330008C91853E11F081110AC0111102C02C83CD
:102340003D83151508F41F5F811104C077C0151572
:1023500028F005C0853E19F400E0C5CF10E08E32AC
:10236000D9F3F60193859F3009F046C0011108C0EA
:1023700086FFB9CF082F0F7125852983402E07C00E
:102380004A948411E9CF858529812813E5CF842DCE
:1023900090E00197ADE0A89F5001A99FB00C1124D7
:1023A000A814B904C8F620E0622FC60128870E944D
:1023B000770F2885A814B90419F4892B69F693CFEF
:1023C0008F3F910509F040F63FEB380F3A3108F4A2
:1023D000805EA5014F5F5F4FD7011396ED91FC9191
:1023E0001497EA0DFB1D90813FEB390F3A3108F449
:1023F000905E8913B1CF40C193FDAECF002351F061
:10240000B1E04B124ACFC6010E94980F2981821376
:1024100044CF10C04BE050E0B101C6010E943B2CFC
:10242000892B09F060CFD7018C9180FF03C021E098
:102430002B8359CF2A8127FF14C12FCF8A81827421
:10244000823409F02ACF112359F0AC80BD8008C036
:1024500060E08A859B850E94B90B892B21F01F5F64
:102460001515B0F318C0AA85BB8511968C918823E9
:1024700091F013CF8A859B850E947C09882309F4FB
:102480000CCFAA85BB851696ED91FC91179782819A
:10249000823018F4105F151568F32B81222341F068
:1024A000B7018A859B850E949F10882309F4F5CE89
:1024B000A50160E070E025E0440F551F661F771FFF
:1024C0002A95D1F78A859B850E94070C882309F4F9
:1024D000E4CE0FEF050D102F8FE0482E670186E048
:1024E000C80ED11C9DE0592E49C060E08A859B85AD
:1024F0000E94B90B5C01009709F4CFCEAA85BB8579
:102500001696ED91FC91179780A1816080A3412FD1
:10251000101301C04064F501408343861486C60150
:1025200049870E94980FD5011D968C931D975B9645
:102530001C921E925A97F7012381348149854F716D
:1025400050E041505109549EC001559E900D1124F8
:10255000F50160E088159905A0F4D901A80FB91F0D
:102560004C91552747FD50956530B0F45283418317
:102570006F5F019632966D3069F711501111B5CF2A
:1025800013C041E050E08815990511F440E050E097
:10259000519541955109E8CF6B3018F45583448328
:1025A000E7CF57834683E4CFEA85FB85808991890D
:1025B000A289B38915E0B695A795979587951A9541
:1025C000D1F75C0160E0CF010E94B90B6C0100976C
:1025D00009F463CE80E2D6011D928A95E9F7F701EE
:1025E00036968BE0D60101900D928A95E1F7F701BE
:1025F00080818871D6011C968C93E0917804F091CB
:102600007904309739F0B601625F7F4FC60140967A
:10261000099509C081E298E2F601918B808B80E0F8
:1026200098E097878687D60150968D919C91519717
:1026300053969C938E93529759969C938E9358974A
:102640001E968D919C911F9757969C938E935697AB
:10265000AA85BB851696ED91FC91179780A18160A4
:1026600080A32A81A5016A857B85C3010E94C40CD1
:1026700009C05524539425CE2F5F2D3009F433CE55
:102680005A0192CE2B960FB6F894DEBF0FBECDBF87
:10269000DF91CF911F910F91FF90EF90DF90CF903E
:1026A000BF90AF909F908F907F906F905F904F9072
:1026B0003F902F9008956115710581F0DB010D9019
:1026C0000020E9F7AD0141505109461B570BDC01D1
:1026D000ED91FC910280F381E02D099480E090E07F
:1026E0000895BF92CF92DF92EF92FF920F931F93C4
:1026F000CF93DF93EC01888180FF39C089819A8173
:102700008E01095F1F4FDC01ED91FC914B815C81D3
:102710006D817E810280F381E02D98010995B82EAC
:10272000811102C0B12C25C0888181FD04C088813F
:102730008E7F88831EC0A981BA81ED91FC9111978B
:102740001C964D915D916D917C911F97CB80DC80A3
:10275000ED80FE804C0D5D1D6E1D7F1D0280F3819E
:10276000E02D9801CD0109958111E1CFDBCFBB248C
:10277000B3948B2DDF91CF911F910F91FF90EF902C
:10278000DF90CF90BF900895CF92DF92EF92FF92AB
:102790001F93CF93DF93EC016A017B01122F4B81D2
:1027A0005C816D817E814C155D056E057F0501F1B3
:1027B0000E947113811103C080E090E01FC012FFDE
:1027C00006C01882CB82DC82ED82FE8211C0898134
:1027D0009A81DC01ED91FC910190F081E02D9E0148
:1027E000295F3F4FB701A60109958111EACFE4CFD8
:1027F00013708881812B8883CE010796DF91CF915A
:102800001F91FF90EF90DF90CF90089542505109B3
:1028100061097109FC01048004C0440F551F661F43
:10282000771F0A94D2F780899189A289B389480FCA
:10283000591F6A1F7B1FCB01BA010895CF92DF9207
:10284000EF92FF920F931F93CF93DF93EC016A01F6
:102850007B0189018D81803251F5E7E0769567959E
:1028600057954795EA95D1F78C899D89AE89BF899F
:10287000480F591F6A1F7B1F22E0CE0180960E94DD
:10288000C413009711F48FEF40C0E894C7F8DD241B
:10289000EE24FF24F601EE0FFF1FEE0FFF1FE80FDF
:1028A000F91F40815181628173817F701DC0803129
:1028B00051F74C895D896E897F894D0D511D611DD0
:1028C000711D22E0CE0180960E94C4130097D9F2B8
:1028D000DD24EE24FF24F601EE0FFF1FE80FF91FA1
:1028E0004081518160E070E0888D998DAA8DBB8D0B
:1028F00084179507A607B70738F0F801408351837E
:102900006283738381E001C080E0DF91CF911F91EA
:102910000F91FF90EF90DF90CF9008958F929F924C
:10292000AF92BF92CF92DF92EF92FF920F931F93DD
:102930006A017B0148015901FC012581203231F5F2
:1029400017E076956795579547951A95D1F70489BD
:10295000158926893789400F511F621F731F23E095
:1029600080960E94C413009799F0E894C7F8DD247C
:10297000EE24FF24F601EE0FFF1FEE0FFF1FE80FFE
:10298000F91F80829182A282B3821DC0203111F092
:1029900080E01AC0FC0144895589668977894D0D0C
:1029A000511D611D711D23E080960E94C413009784
:1029B00079F3DD24EE24FF24F601EE0FFF1FE80F6C
:1029C000F91F9182808281E01F910F91FF90EF901B
:1029D000DF90CF90BF90AF909F908F9008953F92DF
:1029E0004F925F926F927F928F929F92AF92BF921F
:1029F000CF92DF92EF92FF920F931F93CF93DF93CB
:102A0000CDB7DEB728970FB6F894DEBF0FBECDBFA7
:102A10009E838D832A013B0138872F834115510501
:102A20006105710531F4FC0180849184A284B38432
:102A300002C04A015B0175016401FFEFCF1ADF0A92
:102A4000EF0AFF0AED81FE81808D918DA28DB38DFD
:102A50008C159D05AE05BF0528F402E0C02ED12CD3
:102A6000E12CF12C9E012F5F3F4FB701A6018D8114
:102A70009E810E941E1487FD1DC0882341F089811C
:102A80009A81AB81BC81892B8A2B8B2B31F0C814A6
:102A9000D904EA04FB0489F60DC00FEF1FEF2FEFF6
:102AA0003FE0B701A6018D819E810E948E14382ED1
:102AB000811102C0312C1CC0411451046104710405
:102AC00059F097018601B301A2018D819E810E9478
:102AD0008E14811107C0EECFED81FE81C086D186B4
:102AE000E286F386EF81F885C082D182E282F382AA
:102AF000832D28960FB6F894DEBF0FBECDBFDF91B1
:102B0000CF911F910F91FF90EF90DF90CF90BF90EA
:102B1000AF909F908F907F906F905F904F903F907D
:102B200008959F92AF92BF92CF92DF92EF92FF9261
:102B30000F931F93CF93DF9300D000D0CDB7DEB7B4
:102B40005C016A017B019E012F5F3F4FB701A60127
:102B5000C5010E941E14982E87FF02C080E01EC08F
:102B600000E010E09801B701A601C5010E948E1493
:102B70008823A1F3F5014085518562857385C416CC
:102B8000D506E606F70620F4C086D186E286F386EF
:102B9000C980DA80EB80FC809110D5CF0F900F9028
:102BA0000F900F90DF91CF911F910F91FF90EF90B9
:102BB000DF90CF90BF90AF909F900895CF92DF921B
:102BC000EF92FF920F931F93CF93DF93EC01162F99
:102BD0001D8281E090E0A0E0B0E088879987AA8715
:102BE000BB87DAA3C9A318A28FEF9FEFDC018BA3E9
:102BF0009CA3ADA3BEA3662321F1653008F0BFC03E
:102C000020E040E050E0BA01CE0180960E94C4135B
:102C1000009709F4B4C0FC0100E1109FE00DF11D24
:102C20001124E255FE4F80818F7709F0A8C0C0843F
:102C3000D184E284F384C114D104E104F10421F4C9
:102C40009EC0C12CD12C760120E0B701A601CE0197
:102C500080960E94C413FC01009709F490C08385FC
:102C600094858115924009F08AC08089823009F0EC
:102C700086C086859785892B09F481C035853A837E
:102C80008FEF830F8B831C8289E090E021E0321765
:102C900041F0019709F473C0220F4C814F5F4C83C0
:102CA000F6CF468957894115510519F060E070E06B
:102CB00004C044A155A166A177A14C875D876E87AA
:102CC0007F878685978597018601080F191F211D2B
:102CD000311D0C8B1D8B2E8B3F8B818992899F839D
:102CE0008E83440F551F661F771F400F511F621FB1
:102CF000731F4C8F5D8F6E8F7F8FB5E0880F991F8C
:102D0000BA95E1F781509E4F892F99278695480FF4
:102D1000591F611D711D488B598B6A8B7B8B838971
:102D20009489009719F0A0E0B0E004C080A191A1BF
:102D3000A2A1B3A197018601041B150B260B370B2B
:102D4000B901A801480F591F6A1F7B1F0C8004C0DE
:102D500076956795579547950A94D2F7DB01CA0196
:102D60000196A11DB11D888F998FAA8FBB8F453FFA
:102D70001FE051076105710520F48CE08D8380E030
:102D800012C0453F5F4F6105710510F480E109C035
:102D900084A595A5A6A5B7A58C8F9D8FAE8FBF8F57
:102DA00080E28D8381E0DF91CF911F910F91FF90A1
:102DB000EF90DF90CF900895CF93CFB7F8948091A4
:102DC0007C04811127C0E4E3F8E08491E0E2F8E0BC
:102DD0009491E82FF0E0EE0FFF1FEE5AF74FA59108
:102DE000B4918C91892321F461E08AE00E94C42689
:102DF00061E08AE00E948B268CB580618CBD8CB529
:102E000080648CBD61E08DE00E948B2661E08BE0E8
:102E10000E948B2680917C048F5F80937C04CFBFBF
:102E2000CF91089521E0FC012083089570E085E0B2
:102E30000C940326AF92BF92CF92DF92EF92FF9253
:102E40000F931F93CF93DF93EC0189819A812FE039
:102E5000289F8001299F100D112485E10E94E625FD
:102E6000800F911F24E0969587952A95E1F79A8324
:102E700089832881222391F1AC81AD80B12CC12CB2
:102E8000D12CE885F9857F0100E010E06E817F811B
:102E90009B0140E050E08617970728F0BC01E81737
:102EA000F90708F4BF0180E090E01F921F921F9283
:102EB000AF930E9440296B830F900F900F900F905B
:102EC00070E085E0DF91CF911F910F91FF90EF901F
:102ED000DF90CF90BF90AF900C940326DF91CF91FD
:102EE0001F910F91FF90EF90DF90CF90BF90AF9028
:102EF0000895FC018CE39FE09383828384E08183C7
:102F000081E084870895CF93DF93EC018C819D81CC
:102F1000892B81F18C858F7151F584E10E94E62522
:102F2000BC01882777FD8095982F0E94992A26EE6C
:102F30003FE34EEC50E40E94252B0E946B2A9B013C
:102F40007B836A836115710581F084E08983FE01CA
:102F500040E0848195812817390710F449830AC01D
:102F60004F5F32964430A9F702C08FEF89838C857A
:102F70008F5F8C87DF91CF910895FC0188E080837B
:102F800089E0818387E0828386E0838384E0848391
:102F900082E0858381E186830895DF92EF92FF923C
:102FA0000F931F93CF93DF937C01EC0100E010E0BF
:102FB000DD24DA9462E088810E948B2688810E9459
:102FC000FA26F701E00FF11F892B21F487818F5F2B
:102FD000878308C08781882349F08F3F11F41782C7
:102FE00001C0D78260E088810E948B260F5F1F4F4F
:102FF000219607301105F1F6DF91CF911F910F91C6
:10300000FF90EF90DF900895FC01E60FF11D81E045
:103010009781913009F080E008958EBD00000DB4D5
:1030200007FEFDCF8EB50895DC01643508F053C06E
:10303000403308F050C090968C919097342F35957E
:1030400035953595E62FFF27E7FDF095242F27705E
:10305000823099F4DF01A358BB4F84E53802A00DFC
:10306000B11D11248C9190E0022E02C09595879598
:103070000A94E2F78095817009C0833039F44627BD
:103080001C968C91482740FF03C014C0811112C0C8
:1030900084E53802E00DF11D1124E358FB4F81E077
:1030A00090E0022E01C0880F0A94EAF78095908183
:1030B000982310C084E53802E00DF11D1124E35877
:1030C000FB4F81E090E0022E01C0880F0A94EAF7DE
:1030D0009081982B908308951F93CF93DF93EC01F9
:1030E000162FF89460E08F850E94C42688891816F0
:1030F0001CF460E00E94C426812F0E940D1888896C
:1031000018161CF461E00E94C4267894DF91CF91D8
:103110001F91089528EF31E0EDE7F4E0DF01A90108
:103120001D9241505040E1F7DC0119961C9219970D
:103130001A961C920895DF92EF92FF920F931F93BD
:10314000CF93DF93EC018C858F5F8C878DE7E82E22
:1031500084E0F82ED12C6D2D6064CE010E946C1895
:1031600060E8CE010E946C1861E08F850E94C42641
:10317000888918161CF460E00E94C42600E010E064
:10318000F701E00FF11F80810E940D180F5F1F4FA4
:1031900004351105A9F7888918161CF461E00E940E
:1031A000C426D39484E5E80EF11C86E0D812D3CF70
:1031B00060E4CE01DF91CF911F910F91FF90EF90CE
:1031C000DF900C946C18FC0160A361A30895FC01CE
:1031D00060A341A30895CF92DF92FF920F931F93B4
:1031E000CF93DF931F92CDB7DEB76C01062FF42E7D
:1031F00010E0121754F4412F4F0D602FC6012983A0
:103200000E9414181F5F2981F4CF0F90DF91CF9196
:103210001F910F91FF90DF90CF900895CF92DF9292
:10322000FF920F931F93CF93DF931F92CDB7DEB71B
:103230006C01062FF42E10E0121754F4612F600F6A
:103240004F2DC60129830E9414181F5F2981F4CFD6
:103250000F90DF91CF911F910F91FF90DF90CF9052
:103260000895EF92FF920F931F93CF93DF93EC019A
:10327000F62E142FE22E0E940E194FEF400F410F31
:103280002E2D6F2DCE010E940E19202F412F6F2D54
:10329000CE010E94EB186FEF6E0D6F0D202F412FA6
:1032A000CE01DF91CF911F910F91FF90EF900C9481
:1032B000EB18DF92EF92FF920F931F93CF93DF9360
:1032C000EC01E62ED22EF42E112707FD1095040FE7
:1032D000111D47FD1A958F2D992787FD9095801711
:1032E000910744F42D2D4F2D6E2DCE010E940E1905
:1032F000F394F1CFDF91CF911F910F91FF90EF9059
:10330000DF9008958F929F92AF92BF92CF92DF92FB
:10331000EF92FF920F931F93CF93DF93EC01E62E72
:10332000D42E122FCC24C394C21AB22EB194BB0C4B
:10333000F12C802F8470A82E802F8270982E802FE1
:103340008870882E0170F1160CF04DC0C7FC04C0C7
:103350001150B394B394CB0CF3948F2D880F8F5FDF
:10336000C80EAA2071F0412F4D0D6F2D6E0DCE01AC
:103370000E9414184F2D4D0D612F6E0DCE010E942D
:103380001418992071F04D2D411B6F2D6E0DCE013B
:103390000E9414184D2D4F19612F6E0DCE010E9401
:1033A0001418882071F04F2D4D0D6E2D611BCE012C
:1033B0000E941418412F4D0D6E2D6F19CE010E94E1
:1033C0001418002309F4BFCF4D2D4F196E2D611B2A
:1033D000CE010E9414184D2D411B6E2D6F19CE0188
:1033E0000E941418B0CFDF91CF911F910F91FF90E1
:1033F000EF90DF90CF90BF90AF909F908F90089507
:103400008F929F92AF92BF92CF92DF92EF92FF92F4
:103410000F931F93CF93DF93EC01B62EA42E122FA0
:10342000DD24D394D21AC22EC194CC0CFF24F39481
:10343000802F8170882E992493949E0C02708FEFB8
:103440008F0D8117C4F5D7FC04C01150C394C394E9
:10345000DC0C8F2D880F8F5FD80E882099F0212FDC
:10346000220F290D4A2D411B6F2D6B0DCE010E949D
:10347000EB1823E02E0D4A2D4F19612F6B0DCE0155
:103480000E94EB18002399F0212F220F290D4A2DBD
:10349000411B6B2D6F19CE010E94EB1823E02E0DFE
:1034A0004A2D4F196B2D611BCE010E94EB18F3942E
:1034B000E394E394C4CFDF91CF911F910F91FF90DC
:1034C000EF90DF90CF90BF90AF909F908F90089536
:1034D0009F92AF92BF92CF92DF92EF92FF920F93A3
:1034E0001F93CF93DF93EC01B62EF42EA22EDE2C89
:1034F000D194DD0C9D2C920E1E2D160F292D612FBF
:103500000E940E19CC24CA94C00ECF0C292D4C2D2C
:10351000612FCE010E940E19D00EFE0C2D2D4F2DC5
:103520006B2DCE010E94EB18BA0C6FEF6B0D2D2D99
:103530004F2DCE010E94EB1801E02E2D4F2D612F53
:10354000CE010E948219DE2CD094DB0C02E02E2DDD
:103550004F2D6D2DCE010E948219CE1804E02E2D24
:103560004C2D6D2DCE010E94821908E02E2D4C2D80
:10357000612FCE010E948219DF91CF911F910F918F
:10358000FF90EF90DF90CF90BF90AF909F90089505
:10359000AF92BF92CF92DF92EF92FF920F931F9361
:1035A000CF93DF93EC01A62EC42EB22EF02E1E2D4B
:1035B000E194EE0CD12ED60E2E2D2B0D6D2D0E94EA
:1035C0005919FA94FE0CC10E6FEF6A0D6B0D611B59
:1035D000EF2C01E0212F4C2DCE010E94001A02E0B9
:1035E000212F4C2D6D2DCE010E94001ADF91CF911D
:1035F0001F910F91FF90EF90DF90CF90BF90AF9011
:1036000008956F927F928F929F92AF92BF92CF92C6
:10361000DF92EF92FF920F931F93CF93DF93F90105
:10362000A49031965491FC01F0A064350CF00CC1CB
:10363000BB24A7FCB094A62FBB27A7FDB095FD0126
:10364000EA0DFB1D1E161F060CF0FEC040330CF0E9
:10365000FBC0C52E042F112707FD1095E801C50FEB
:10366000D11D57FDDA951C161D060CF0EDC0E901C1
:1036700022969501295F3F4F37FF02C0295F3F4FD8
:1036800073E0359527957A95E1F747FF0AC0C52E77
:10369000C40E209FA001219F500D1124C41BD50BE7
:1036A00040E00C2D112707FD1095040F111D47FD5B
:1036B0001A95013311051CF070E3C72EC41A67FD7B
:1036C00060E0E535F10514F0E4E5F0E01E2FFC01C3
:1036D00074857427862F992787FD9095FC01EA1B36
:1036E000FB0BDF015F01F7E0AF22BB24E0E8F0E075
:1036F00002C0F595E795AA94E2F70E2FB7FD17964D
:1037000053E0B595A7955A95E1F7AC0FBD1FE42F8F
:10371000E77051E001C0550FEA95EAF745954595E8
:103720004595E4E54E02800D911D112483589B4F71
:1037300040E0DD24C7FCD094BB24B3943327E42FAE
:10374000F0E0EC15FD050CF07FC0FD01E490F1E028
:10375000FF1219C0EC01A02EFD01862E881A9C2EA6
:10376000980C911608F067C09E2C9A2019F098804A
:10377000952A9882A69429F43196E4906894AA2414
:10378000A7F82196ECCFF1101BC0752E7094EC01B8
:10379000A02EFD01862E881A9C2E980C911608F0FA
:1037A0004AC09E2C9A2019F0988097209882A6945F
:1037B00029F43196E4906894AA24A7F82196ECCFD6
:1037C000E3E0FE1631F0EC01A02EFD01862E881AF2
:1037D0002EC0752E7094962EEC01A02EFD01911630
:1037E000B0F48E2C8A2049F08880692C672660FE10
:1037F00002C0852A01C087208882A69429F43196C8
:10380000E4906894AA24A7F893942196E8CF7B25A6
:1038100012C09E2C9A2019F0988095269882A69422
:1038200029F43196E4906894AA24A7F821969C2E56
:10383000980C911670F3550F19F48C5A9F4F51E064
:103840004F5FA20FB31F7BCFDF91CF911F910F91DD
:10385000FF90EF90DF90CF90BF90AF909F908F90B0
:103860007F906F900895DC01FB0184918F5F149627
:103870008C9314973196E491EF5F1596EC9315971E
:103880006E5F7F4F5F967C936E935E970895EF9285
:103890000F93CF93DF93EC014E876D872F87E98AD3
:1038A000088B81E0888788A319A28F836DE175E07A
:1038B000CE010E94331C0E94DC168CB58F7D8CBD1E
:1038C0008CB58C7F81608CBD8DB581608DBD8CB5D4
:1038D0008C608CBD61E08E850E948B2661E08D85B9
:1038E0000E948B2661E08F850E948B26898918169D
:1038F0001CF461E00E948B26888918161CF461E094
:103900000E948B26898918166CF460E00E94C426F8
:103910006AE070E080E090E00E94832561E08989A0
:103920000E94C4268D85992787FD9095FC01E65D50
:10393000F74FE491F0E0EE0FFF1FE85BF74F2591A2
:1039400034913D8B2C8BFC01EA5EF74F84918B8F79
:103950008E85992787FD9095FC01E65DF74FE491F0
:10396000F0E0EE0FFF1FE85BF74F259134913B8BA2
:103970002A8BFC01EA5EF74F84918A8F8889992708
:1039800087FD9095FC01E65DF74FE491F0E0EE0FC6
:10399000FF1FE85BF74F259134913F8B2E8BFC0185
:1039A000EA5EF74F84918C8F8F85992787FD9095DC
:1039B000FC01E65DF74FE491F0E0EE0FFF1FE85BDE
:1039C000F74F25913491398F288FFC01EA5EF74F2C
:1039D00084918D8F61E2CE010E946C1864E1CE016A
:1039E0000E946C188B8587FF02C08FE78B876B85E1
:1039F0006068CE010E946C1860E2CE010E946C18D3
:103A00006CE0CE010E946C18CE01DF91CF910F9136
:103A1000EF900C949B186F927F928F929F92AF922F
:103A2000BF92CF92DF92EF92FF920F931F93CF93AB
:103A3000DF93EC01162FF42EB02EE8A064350CF0C5
:103A400081C08FE284170CF47DC0EC81F0E03197E7
:103A50000E9FC0010F9F900D1124860F911D67FDD1
:103A60009A95181619060CF06DC08D81809FC001C3
:103A70001124840F911D47FD9A95181619060CF014
:103A800061C0A62E962EC22ED12C8A2D811B99277D
:103A900087FD90952C8130E0821793070CF051C080
:103AA000215031098217930779F0C29ED001C39E3D
:103AB000B00DD29EB00D1124A80FB91FEE8DFF8D51
:103AC000EA0FFB1F749001C0712C8F2C6F2C282DD6
:103AD0002F19332727FD30958D8190E0281739075E
:103AE0006CF570FE11C081E0B81206C0482D6A2D39
:103AF000CE010E9414181EC00B2D2B2D462D692DB2
:103B0000CE010E94591916C089A198A1891791F078
:103B100088A381E0B81206C0482D6A2DCE010E940C
:103B2000141807C00B2D2B2D462D692DCE010E9498
:103B30005919E8A276946B0C8394C9CF9B0CA3947B
:103B4000A4CFE8A2DF91CF911F910F91FF90EF904A
:103B5000DF90CF90BF90AF909F908F907F906F90AD
:103B600008950F93CF93DF93EC01262F6A3039F439
:103B70002D8198858A85299F800D112422C06D3062
:103B800011F108854A8569850E940B1D48855C8175
:103B90002985549F200D112429878F81882399F02E
:103BA000332727FD309584E590E0459F80199109E2
:103BB0001124821793073CF49D818A85499F800DCB
:103BC00011248A87198681E090E0DF91CF910F91CF
:103BD0000895FC01EC57FF4F718360833296445F78
:103BE000408308958F929F92AF92BF92CF92DF92BF
:103BF000EF92FF920F931F93CF93DF93EC015C0141
:103C000086E8A80EB11CD5018C91882309F44DC01B
:103C10008C3018F41CE0181B01C010E0FE01EA5AB9
:103C2000FF4F81E080836E01BEE4CB0ED11C60E0CB
:103C3000C6010E94E3184E01E3E58E0E911CD401EB
:103C40008C9103E0080F9DE2F92E4F2D481B410F88
:103C500023E0E22E24E560E0C6010E94C81A61E07C
:103C6000C6010E94E318F401808103E0080F4F2D84
:103C7000481B410F24E560E0C6010E94681AFE015E
:103C8000E95AFF4F84E080833196D4018C91181B50
:103C9000115D1083CC57DF4F68817981C6010E9486
:103CA0000028F501808181508083DF91CF911F91A1
:103CB0000F91FF90EF90DF90CF90BF90AF909F90CB
:103CC0008F900895DF92EF92FF920F931F93CF93FF
:103CD000DF93EC018C8D9D8D892B09F49CC08E01A6
:103CE000025B1F4F40E061E0C8010E94E71885E5D4
:103CF000FE01EE5AFF4F9081891B359680833196E5
:103D00001082698D613009F462C028F0888D6530B9
:103D100008F074C06FC0CE0185960E94532381E0E5
:103D2000FE01EA5AFF4F80836DE175E0C8010E94F1
:103D3000331C1D8E1C8EFE01EC5AFF4F108238EA98
:103D4000D32E7E018AE0E80EF11CCE010E94131FE3
:103D50008823D9F36CE077E0C8010E9400286A8DBF
:103D60007B8D4AE050E0C8010E943A2967EF76E077
:103D7000C8010E9400286D2D62956F7070E04AE0C6
:103D800050E0C8010E9407296CEE76E0C8010E944D
:103D9000002864E0C7010E94041881113CC0DA9435
:103DA000A1F660E0CE010E94161783B7817F846080
:103DB00083BF83B7816083BF83B7816083BF8895EA
:103DC00083B78E7F83BF83B78E7F83BFBECFCF582D
:103DD000DF4F488159816A817B814F705527662763
:103DE0007727483051056105710510F467E009C077
:103DF00068E707C0882379F06B5F03C0882359F018
:103E00006FE2C801DF91CF911F910F91FF90EF906A
:103E1000DF900C942528DF91CF911F910F91FF9097
:103E2000EF90DF9008958F929F92AF92BF92EF92A2
:103E3000FF920F931F93CF93DF93EC017C0100E877
:103E4000E00EF11CF70180809180A280B3800E9477
:103E5000542595018401061B170B280B390BB9015A
:103E6000A8015E011FE7A10EB11CF501808190E061
:103E7000A0E0B0E08E0105581F4F84179507A607F4
:103E8000B70750F4F80180819181A281B381892B19
:103E90008A2B8B2B09F040C0F80180819181A2818F
:103EA000B381892B8A2B8B2BA9F57E01F5E2EF0ECE
:103EB000F11CC7010E945023C7010E94BD23C70106
:103EC0000E948124CE010E94F21DCE010E94621E3A
:103ED0007E012EE4E20EF11CC7010E949B18FE0138
:103EE000EC5AFF4F8081811103C0C7010E948A18DC
:103EF0000E946025F8016083718382839383FE01B1
:103F0000EB58FF4FC958DF4F28813981621B730B73
:103F10007183608380E036C00E945425F5012081C2
:103F2000620F711D811D911DF70160837183828372
:103F30009383FE01EF58FF4F40815181628173816D
:103F40004F5F5F4F6F4F7F4F408351836283738317
:103F5000F80110821182128213820E946025FE01F4
:103F6000E958FF4F6083718382839383CE010E945F
:103F70001A17CE010A960E94CD17CE0148960E94CC
:103F8000831781E0DF91CF911F910F91FF90EF9008
:103F9000BF90AF909F908F9008950F931F93CF93F2
:103FA000DF938C01EC01C25BDF4FCE010E948A18C7
:103FB00064EC76E0CE010E940028CE010E949B189E
:103FC0008CB583608CBD8DB58E7F8DBD8DE591E008
:103FD000EEEFFFE30995F801EC5AFF4F10826FE90D
:103FE00076E0CE010E944028CE010E949B18065F19
:103FF0001F4FC8010E94CD1764E0C8010E94041839
:10400000811107C062E370E080E090E00E948325A8
:10401000F0CFDF91CF911F910F9108952F923F9292
:104020004F925F926F927F928F929F92AF92BF92C8
:10403000CF92DF92EF92FF920F931F93CF93DF9374
:10404000CDB7DEB729970FB6F894DEBF0FBECDBF50
:10405000998788871B012A013C0180E7680E711C43
:10406000F3018081882309F402C181E0E885F985A4
:10407000EA5AFF4F8083E885F985EB5AFF4F10829B
:10408000E885F985EC5AFF4F1082E885F985108E96
:104090008F01025B1F4F61E0C8010E94E318888511
:1040A00099858D5A9F4F9C838B83C884D98497E5CB
:1040B000C90ED11CE884F984E8E5EE0EF11C888570
:1040C00099858E5A9F4F9A838983E885F985EF58A1
:1040D000FF4FFE83ED8388849984FAE08F0E911C54
:1040E000A884B98485E2A80EB11C888599850E94B0
:1040F000131F8823D1F3F1018491882321F0EB81F0
:10410000FC81508101C050E02FE237E040E060E0E8
:10411000C8015F830E94011B5F814114510439F083
:104120004CE0450F920160E0C8010E94011BF601BE
:1041300010828CE0F7018083B101C8010E94002841
:10414000E981FA819081892F880F890F81958D5A95
:10415000F6018083EB81FC819081892F880F890F84
:104160008195835DF7018083ED81FE81808184FFED
:1041700003C06AE277E002C066E277E0C8010E940D
:104180004028E981FA819081892F880F890F8195D4
:104190008D5AF6018083F70180818F5F8083E885E7
:1041A000F98582A5882319F062E277E002C06EE10A
:1041B00077E0C8010E944028E981FA819081892F27
:1041C000880F890F81958D5AF6018083F7018081D0
:1041D0008F5F80836AE177E0C8010E94402865E034
:1041E000C4010E940418882351F0E885F98562A56E
:1041F0006F5FC5010E94FD24C5010E94E72464E0B1
:10420000C4010E940418811113C0F3012081822F80
:1042100090E0A0E0B0E0ED81FE81408151816281BB
:104220007381481759076A077B07A8F02F3F99F059
:104230008FEFF3018083088519850B5D1F4F60E0C8
:10424000C8010E94FA22C8010E94D12481E0E885B9
:10425000F985808F0CC066E0C4010E940418882391
:1042600009F443CF888599850E94CD1F34CF2996C4
:104270000FB6F894DEBF0FBECDBFDF91CF911F9177
:104280000F91FF90EF90DF90CF90BF90AF909F90F5
:104290008F907F906F905F904F903F902F900895F8
:1042A000AB016EE277E00C940E20E0E8F7E7259191
:1042B000349181E02130304C09F080E00895CF93B3
:1042C000DF93EC010E9455219E01275A3F4FDE01EA
:1042D000A059BF4F882309F43CC0E6E9F7E7849171
:1042E000F9018083E7E9F7E7E491EC83E8E9F7E790
:1042F000E491ED83E9E9F7E7859194919F838E83BB
:10430000EBE9F7E78591949199878887EDE9F7E7DD
:10431000E491EBA7EEE9F7E7E491EAA7EFE9F7E725
:10432000E491EC93E0EAF7E7859194919D8F8C8F6F
:10433000E2EAF7E7859194919F8F8E8FE4EAF7E7A1
:104340008591949199A388A3E6EAF7E785919491E2
:1043500020C08CE3F90180831C822FEF2D8380E243
:1043600093E09F838E8384ED93E09987888781E033
:104370008BA78AA72C938CEA9DE09D8F8C8F8EED66
:104380009DE09F8F8E8F84E79EE099A388A38CE3A6
:104390009FE09BA38AA3DF91CF910895CF92DF92F4
:1043A000EF920F93CF93DF93EC01FC01E158FF4FA5
:1043B00082E38083349741E050E060E070E0408326
:1043C0005183628373833B978FEF8083CE010E947A
:1043D0005F21CE010E9412176FEFCE010E941617C7
:1043E0006E018AE0C80ED11CC6010E94BD17C6012D
:1043F0000E94CD17CE0148960E9479173EE0E32E29
:104400000FE020E14BE06DE0CE01825B9F4F0E9408
:10441000471CA596CE010E94662265E0C6010E9457
:104420000418882351F060E0CE01DF91CF910F9105
:10443000EF90DF90CF900C94FD2440E06FE977E09F
:10444000CE01DF91CF910F91EF90DF90CF900C9440
:104450000523CF93DF9350E0FA01EE0FFF1FE80F23
:10446000F91F37852089E32FF22FE60FF11DE60FA4
:10447000F11D25913491FA01EE0FFF1FE80FF91F8E
:1044800030A3278FF90165917491FC01D481D69FE7
:10449000C02D1124E40FF51FC1A3F901A591B4911A
:1044A0006B2F70E0EC2FF0E0DC01A40FB51F6E174E
:1044B0007F0720F4F90125913491C32FCD9FC02DA2
:1044C00011249296CC93DF91CF91089521E0FC01C5
:1044D000248324E020A726EF37E0308B278740E0B5
:1044E00060E00E94292261E070E083E00E940326E0
:1044F000E1EBF0E08081887F81608083F894109206
:104500008000E1E8F0E010821092850010928400B3
:1045100088E191E090938900809388008081886091
:104520008083808181608083EFE6F0E0808182601B
:104530008083789408950F93FC01862F642F0111D6
:1045400029C08230D1F048F4882391F0813011F5F0
:1045500040E0CF010F910C9429228330A9F08430E0
:10456000C9F48481489F602D1124658F268F12C065
:104570004B3008F06AE0668B0DC08481489F602D47
:104580001124618F228F06C08481489F602D1124E1
:10459000638F248F0F910895FC0121110EC0648B4D
:1045A0008481489F402D1124458B15A214A213A28B
:1045B00081E0878B80938106108E0895809181061B
:1045C000882319F080917E0601C080E08093B400BA
:1045D0000895FC0161110DC0178A158A14A213A257
:1045E000108E10927E0610927F06109281060C9417
:1045F000DE220895CF93DF93EC01611103C00E9486
:10460000E9221982DF91CF9108950F931F93CF93E1
:10461000DF93EC018B0141110EC060E00E94FA2291
:104620001E870D871B8A1A8A81E0898389E08E8B19
:10463000198E1B8E1D8EDF91CF911F910F910895C2
:10464000CF93DF93EC01611128C08881882329F181
:104650008981811122C089852F819885E22FF92FC8
:10466000E80FF11DE80FF11D859194918F3F2FEF19
:10467000920711F4188211C09C879927880F991FFF
:10468000EA85FB85E80FF91F6591749140E0CE0142
:104690000E94052389858F5F8987DF91CF910895D7
:1046A00060E00C94202360E00C94FA220F93CF93E7
:1046B000DF93EC0161115DC08981882309F459C041
:1046C0008D89811156C02D853E858A899B89880FE9
:1046D000991F820F931FFC01859194910097D1F44B
:1046E0008989882321F01B8A1A8AF90111C019824D
:1046F000888160E0882331F0CE010E9420238A89DE
:104700009B8925C0CE01DF91CF910F910C94E922B6
:1047100085919491BC01769567957695679580FF14
:104720001DC0AC01A6E056954795AA95E1F7292F43
:1047300026952695269520514F716F7000E0CE0189
:104740000E949B228A899B8901969B8B8A8B880F6A
:10475000991FED85FE85E80FF91FDACF492F6F739A
:1047600020E0CE010E94CC228A899B8901969B8BF6
:104770008A8BDF91CF910F91089560E00C945623BE
:10478000CF93DF93EC016111B9C08F89882309F4BD
:10479000B5C08D89811105C0CE01DF91CF910C94F8
:1047A000E92281508D8B8DA1811138C08BA19CA1F4
:1047B00001969C01220F331FEF8DF8A1E20FF31F2A
:1047C00025913491422F47704EA3A90163E056957D
:1047D00047956A95E1F7BA0176956795232F269557
:1047E00026952FA36F732C81629F602D11246DA3DA
:1047F000417040937D069CA38BA329A130E08217D2
:10480000930760F08AA1882329F0281B31093CA373
:104810002BA304C060E0CE010E94E9228DA181504B
:104820008DA3288D2F5F288F4C893FA1340F8C8555
:10483000380F3A836B8D662361F070E0822F9927E1
:1048400087FD90950E94C62B8C8D869F300D11247C
:104850003A838A8190E0CB966BE370E00E94C62B8E
:104860008A833E893B83698D662371F0772767FDD4
:104870007095822F992787FD90950E94C62B8A8D6F
:10488000869F300D11243B836D8D662391F0822F1E
:10489000992787FD909570E00E94C62BCB0162E0BE
:1048A00070E00E94C62B2E8D9B81289F900D1124B5
:1048B0009B838B814F3339F08A300CF089E087FD80
:1048C00080E08B8301C01B82F894EA81F0E0E3551D
:1048D000F84FE491E093800698A58D81989F802DF4
:1048E00011249B81899F802D11249EA1899F802D59
:1048F000112480937F0680937E067894DF91CF9178
:10490000089560E00C94C02360917F06662321F136
:10491000809182068F5F809382069091800689172E
:10492000D8F08091810691E08927809381061092CA
:10493000820680917D06882369F090910A0183E4C4
:10494000989F802D1124895B80930A010E94982BE7
:1049500090937E060C94DE2208951F920F920FB65C
:104960000F9211242F933F934F935F936F937F93F5
:104970008F939F93AF93BF93EF93FF930E948424F1
:10498000FF91EF91BF91AF919F918F917F916F9127
:104990005F914F913F912F910F900FBE0F901F90FD
:1049A0001895CF93DF93EC0160E00E94FA228EEE1F
:1049B00097E09E878D871B8A1A8A81E0898389E028
:1049C0008E8B198E1B8E1D8EDF91CF910895CF9304
:1049D000DF93EC0160E00E94FA2288EE97E09E8768
:1049E0008D871B8A1A8A81E0898389E08E8B198ED4
:1049F0001B8E1D8EDF91CF910895FC01862F992784
:104A000087FD9095668170E06F5F7F4F0E94C62B97
:104A1000858308951F920F920FB60F9211242F9342
:104A20003F938F939F93AF93BF9380918406909110
:104A30008506A0918606B09187063091830623E013
:104A4000230F2D3720F40196A11DB11D05C026E8C6
:104A5000230F0296A11DB11D209383068093840627
:104A600090938506A0938606B0938706809188066A
:104A700090918906A0918A06B0918B060196A11D9E
:104A8000B11D8093880690938906A0938A06B093FF
:104A90008B06BF91AF919F918F913F912F910F9076
:104AA0000FBE0F901F9018952FB7F8946091840651
:104AB0007091850680918606909187062FBF089594
:104AC0003FB7F8948091880690918906A0918A0654
:104AD000B0918B0626B5A89B05C02F3F19F0019613
:104AE000A11DB11D3FBF6627782F892F9A2F620F16
:104AF000711D811D911D42E0660F771F881F991F50
:104B00004A95D1F70895CF92DF92EF92FF92CF931B
:104B1000DF936B017C010E946025EB01C114D1047D
:104B2000E104F10489F00E9487290E9460256C1B32
:104B30007D0B683E734090F381E0C81AD108E1080C
:104B4000F108C851DC4FEACFDF91CF91FF90EF9091
:104B5000DF90CF900895789484B5826084BD84B549
:104B6000816084BD85B5826085BD85B5816085BD68
:104B7000EEE6F0E0808181608083E1E8F0E0108281
:104B8000808182608083808181608083E0E8F0E0C2
:104B9000808181608083E1EBF0E0808184608083AC
:104BA000E0EBF0E0808181608083EAE7F0E08081E3
:104BB0008460808380818260808380818160808343
:104BC0008081806880831092C10008958E3008F043
:104BD0008E50877020910B0190E4299F9001112441
:104BE000822B80937C0080917A00806480937A008D
:104BF00080917A0086FDFCCF809178002091790029
:104C000090E0922B08951F93CF93DF93182FEB0121
:104C100061E00E948B26209711F460E004C0CF3F32
:104C2000D10539F461E0812FDF91CF911F910C9470
:104C3000C426E12FF0E0EE5FF74FE491E330F9F0A6
:104C400048F4E130B9F0E230A1F584B5806284BD6A
:104C5000C8BD34C0E730E9F0E83019F1E43049F577
:104C600080918000806280938000D0938B00C093FD
:104C70008A0024C084B5806884BDC7BD1FC08091F0
:104C80008000806880938000D0938900C093880062
:104C900015C08091B00080688093B000C093B300CD
:104CA0000DC08091B00080628093B000C093B400CA
:104CB00005C0C038D1050CF0B5CFAFCFDF91CF9193
:104CC0001F910895833081F028F4813099F082306B
:104CD000A1F008958730A9F08830B9F08430D1F47C
:104CE000809180008F7D03C0809180008F778093BA
:104CF0008000089584B58F7702C084B58F7D84BD10
:104D000008958091B0008F7703C08091B0008F7DAF
:104D10008093B0000895CF93DF9390E0FC01EA5EAA
:104D2000F74F2491FC01E65DF74F8491882349F108
:104D300090E0880F991FFC01EE5AF74FA591B491AE
:104D4000885B974FFC01C591D4919FB7611108C052
:104D5000F8948C91209582238C93888182230AC0B9
:104D6000623051F4F8948C91322F309583238C93D8
:104D70008881822B888304C0F8948C91822B8C9339
:104D80009FBFDF91CF9108950F931F93CF93DF9330
:104D90001F92CDB7DEB7282F30E0F901EE5FF74F55
:104DA0008491F901EA5EF74F1491F901E65DF74F3E
:104DB00004910023C9F0882321F069830E946226B0
:104DC0006981E02FF0E0EE0FFF1FE85BF74FA59140
:104DD000B4919FB7F8948C91611103C01095812311
:104DE00001C0812B8C939FBF0F90DF91CF911F91BA
:104DF0000F910895CF93DF93282F30E0F901EE5FF4
:104E0000F74F8491F901EA5EF74FD491F901E65D1D
:104E1000F74FC491CC2391F081110E946226EC2FB0
:104E2000F0E0EE0FFF1FE25CF74FA591B4912C91DB
:104E30002D2381E090E021F480E002C080E090E04A
:104E4000DF91CF9108951F920F920FB60F92112408
:104E50002F938F939F93EF93FF93E0919C06F09194
:104E60009D068081E091A206F091A30682FD12C00A
:104E700090818091A5068F5F8F732091A60682177F
:104E800051F0E091A506F0E0E457F94F958F80933B
:104E9000A50601C08081FF91EF919F918F912F9185
:104EA0000F900FBE0F901F9018951F920F920FB684
:104EB0000F9211242F933F934F935F936F937F93A0
:104EC0008F939F93AF93BF93EF93FF938CE896E0FC
:104ED0000E94C329FF91EF91BF91AF919F918F9154
:104EE0007F916F915F914F913F912F910F900FBEE6
:104EF0000F901F9018958CE896E00E94882921E079
:104F0000892B09F420E0822F089510928F061092C9
:104F10008E0688EE93E0A0E0B0E080939006909338
:104F20009106A0939206B093930688E691E0909341
:104F30008D0680938C0685EC90E090939906809383
:104F4000980684EC90E090939B0680939A0680EC00
:104F500090E090939D0680939C0681EC90E0909366
:104F60009F0680939E0682EC90E09093A10680932A
:104F7000A00686EC90E09093A3068093A206109280
:104F8000A5061092A6061092A7061092A8060895EC
:104F900008950E94AB250E94C8270E948306C5EB96
:104FA000D9E20E948E062097E1F30E94B529F9CF3D
:104FB000CF92DF92EF92FF920F931F93CF93DF93E5
:104FC0006C017A01EB01E60EF71E00E010E0CE1551
:104FD000DF0561F06991D601ED91FC910190F081BE
:104FE000E02DC6010995080F191FF1CFC801DF9107
:104FF000CF911F910F91FF90EF90DF90CF90089588
:10500000EF92FF920F931F93CF93DF938C01FB01DD
:10501000C0E0D0E064917F018FEFE81AF80A6623C0
:1050200061F0D801ED91FC910190F081E02DC80173
:105030000995C80FD91FF701EDCFCE01DF91CF91B0
:105040001F910F91FF90EF900895DC01ED91FC917D
:105050000190F081E02D09940F931F93CF93DF937C
:10506000EC016DE00E9425288C016AE0CE010E94CF
:105070002528800F911FDF91CF911F910F910895E7
:105080000F931F93CF93DF93EC010E9400288C01B4
:10509000CE010E942C28800F911FDF91CF911F918C
:1050A0000F9108950F931F93CF93DF93EC010E940C
:1050B0005B138C01CE010E942C28800F911FDF9181
:1050C000CF911F910F9108958F929F92AF92BF92AF
:1050D000CF92DF92EF92FF920F931F93CF93DF93C4
:1050E000CDB7DEB7A1970FB6F894DEBF0FBECDBF28
:1050F0007C01C42EE52FCB01D22E19A221E02D1563
:1051000010F02AE0D22E8E010F5D1F4F8D2C912CB6
:10511000A12CB12C6C2D7E2FA50194010E94DA2BBD
:105120008C2DD29E80191124015011098A3014F45B
:10513000805D01C0895CF80180832115310541053E
:10514000510521F0C22EE32FCA01E4CFB801C701F7
:105150000E945B13A1960FB6F894DEBF0FBECDBFC1
:10516000DF91CF911F910F91FF90EF90DF90CF9043
:10517000BF90AF909F908F900895CF92DF92EF9263
:10518000FF920F931F93CF93DF93EC016A017B0192
:105190002115310579F4E881F9810190F081E02D44
:1051A000642FDF91CF911F910F91FF90EF90DF90CF
:1051B000CF9009942A303105E9F477FF1AC06DE2E7
:1051C0000E9425288C0144275527BA014C195D09F6
:1051D0006E097F092AE0CE010E946428800F911F8A
:1051E000DF91CF911F910F91FF90EF90DF90CF90C3
:1051F00008952AE0B701A601CE01DF91CF911F915A
:105200000F91FF90EF90DF90CF900C9464289A015B
:10521000AB01662757FD6095762F0C94BD282115AC
:10522000310541F4DC01ED91FC910190F081E02D1C
:10523000642F09940C9464289A01462F50E060E092
:1052400070E00C940F290F931F93CF93DF93EC0121
:105250009A01462F50E060E070E00E940F298C0117
:10526000CE010E942C28800F911FDF91CF911F91BA
:105270000F9108959A01AB0160E070E00C940F2942
:105280004F925F926F927F92AF92BF92CF92DF92D6
:10529000EF92FF920F931F93CF93DF93CDB7DEB7BB
:1052A00029013A01621B730B840B950B29893A89FA
:1052B0004B895C892A193B094C095D09298B3A8B7A
:1052C0004B8B5C8B9B01AC0169897A898B899C89AA
:1052D0000E94882BE418F50806091709A801970110
:1052E0000E94FC2B2A0D3B1D4C1D5D1DCA01B901FE
:1052F000DF91CF911F910F91FF90EF90DF90CF90B2
:10530000BF90AF907F906F905F904F9008950895F9
:10531000FC01818D228D90E0805C9F4F821B910962
:105320008F7399270895FC01918D828D981731F024
:10533000828DE80FF11D858D90E008958FEF9FEF2E
:105340000895FC01918D828D981761F0828DDF01A7
:10535000A80FB11D5D968C91928D9F5F9F73928F68
:1053600090E008958FEF9FEF08958BE797E2892BE8
:1053700049F080E090E0892B29F00E947B27811181
:105380000C9400000895FC01848DDF01A80FB11D6D
:10539000A35ABF4F2C91848D90E001968F7399276B
:1053A000848FA689B7892C93A089B1898C91806458
:1053B0008C93938D848D981306C00288F389E02D19
:1053C00080818F7D80830895CF93DF93EC01888D5A
:1053D0008823C9F0EA89FB89808185FD05C0A889F9
:1053E000B9898C9186FD0FC00FB607FCF5CF80817F
:1053F00085FFF2CFA889B9898C9185FFEDCFCE01C9
:105400000E94C329E7CFDF91CF910895CF92DF9219
:10541000FF920F931F93CF93DF931F92CDB7DEB709
:105420006C01DC015B969C915B975C968C915C9720
:10543000981307C05096ED91FC915197808185FD9E
:1054400032C0F601038D10E00F5F1F4F0F7311275D
:10545000F02EF601848DF81211C00FB607FCF9CFBB
:10546000D6015096ED91FC915197808185FFF1CF47
:10547000C60169830E94C3296981EBCF838DE80F40
:10548000F11DE35AFF4F6083D6015B960C935B9747
:105490005296ED91FC91539780818062808381E0E8
:1054A00058968C930DC0D6015696ED91FC91579766
:1054B00060835096ED91FC91519780818064808348
:1054C00081E090E00F90DF91CF911F910F91FF90BD
:1054D000DF90CF90089598D088F09F5790F0B92F23
:1054E0009927B751A0F0D1F0660F771F881F991F39
:1054F0001AF0BA95C9F712C0B13081F09FD0B1E06F
:1055000008959CC0672F782F8827B85F39F0B93F7E
:10551000CCF3869577956795B395D9F73EF490953A
:105520008095709561957F4F8F4F9F4F0895E894B8
:1055300009C097FB3EF490958095709561957F4FDB
:105540008F4F9F4F9923A9F0F92F96E9BB27939589
:10555000F695879577956795B795F111F8CFFAF499
:10556000BB0F11F460FF1BC06F5F7F4F8F4F9F4FCA
:1055700016C0882311F096E911C0772321F09EE828
:10558000872F762F05C0662371F096E8862F70E08E
:1055900060E02AF09A95660F771F881FDAF7880F68
:1055A0009695879597F9089597F99F6780E870E039
:1055B00060E008959FEF80EC089500240A94161689
:1055C000170618060906089500240A9412161306F1
:1055D000140605060895092E0394000C11F488237F
:1055E00052F0BB0F40F4BF2B11F460FF04C06F5F9B
:1055F0007F4F8F4F9F4F089557FD9058440F551F71
:1056000059F05F3F71F04795880F97FB991F61F044
:105610009F3F79F087950895121613061406551FBB
:10562000F2CF4695F1DF08C0161617061806991F27
:10563000F1CF86957105610508940895E894BB271C
:1056400066277727CB0197F908950BD0C4CFB5DF34
:1056500028F0BADF18F0952309F0A6CFABCF1124BC
:10566000EECFCADFA0F3959FD1F3950F50E0551F01
:10567000629FF001729FBB27F00DB11D639FAA27A7
:10568000F00DB11DAA1F649F6627B00DA11D661FF6
:10569000829F2227B00DA11D621F739FB00DA11D17
:1056A000621F839FA00D611D221F749F3327A00DD1
:1056B000611D231F849F600D211D822F762F6A2F6D
:1056C00011249F5750408AF0E1F088234AF0EE0FF2
:1056D000FF1FBB1F661F771F881F91505040A9F7FF
:1056E0009E3F510570F060CFAACF5F3FECF3983E2C
:1056F000DCF3869577956795B795F795E7959F5F66
:10570000C1F7FE2B880F911D9695879597F90895FF
:10571000DB018F939F930E941B2CBF91AF91A29F9F
:10572000800D911DA39F900DB29F900D112408959F
:10573000991B79E004C0991F961708F0961B881FE3
:105740007A95C9F78095089587FB082E062687FD70
:10575000819567FD61950E94982B0EF4919507FC49
:1057600081950895AA1BBB1B51E107C0AA1FBB1F4F
:10577000A617B70710F0A61BB70B881F991F5A95DD
:10578000A9F780959095BC01CD01089597FB072E50
:1057900016F4009407D077FD09D00E94B22B07FCC5
:1057A00005D03EF4909581959F4F08957095619531
:1057B0007F4F0895A1E21A2EAA1BBB1BFD010DC04D
:1057C000AA1FBB1FEE1FFF1FA217B307E407F507B1
:1057D00020F0A21BB30BE40BF50B661F771F881F8D
:1057E000991F1A9469F760957095809590959B0123
:1057F000AC01BD01CF010895052E97FB1EF4009466
:105800000E94132C57FD07D00E94DA2B07FC03D00F
:105810004EF40C94132C50954095309521953F4FA4
:105820004F4F5F4F089590958095709561957F4F8C
:105830008F4F9F4F08950E942C2CA59F900DB49FD1
:10584000900DA49F800D911D11240895EE0FFF1F50
:105850000590F491E02D0994A29FB001B39FC0017F
:10586000A39F700D811D1124911DB29F700D811D8C
:105870001124911D0895FB01DC0104C08D9101905C
:10588000801921F441505040C8F7881B990B0895A6
:10589000FB01DC0102C001900D9241505040D8F74D
:0658A0000895F894FFCF0B
:1058A6000000290780000100000001015049524113
:1058B60054452E4A43006F70656E696E67207465A5
:1058C60073742E74787420666F72207772697465AB
:1058D600206661696C65640047414D450000000023
:1058E60000A20479045A0482047F047C04000000A8
:1058F600009A049E0400000000B11DD8274C4F41B9
:105906004445520000000000062AD8278829A1290C
:045916009329E429C4
:00000001FF
